{"abi":[{"inputs":[{"internalType":"uint256","name":"minimum","type":"uint256"},{"internalType":"address","name":"creator","type":"address"}],"stateMutability":"nonpayable","type":"constructor"},{"inputs":[{"internalType":"uint256","name":"","type":"uint256"},{"internalType":"address","name":"","type":"address"}],"name":"approvals","outputs":[{"internalType":"bool","name":"","type":"bool"}],"stateMutability":"view","type":"function"},{"inputs":[{"internalType":"uint256","name":"requestIndex","type":"uint256"}],"name":"approveRequest","outputs":[],"stateMutability":"nonpayable","type":"function"},{"inputs":[{"internalType":"address","name":"","type":"address"}],"name":"approvers","outputs":[{"internalType":"bool","name":"","type":"bool"}],"stateMutability":"view","type":"function"},{"inputs":[],"name":"contribute","outputs":[],"stateMutability":"payable","type":"function"},{"inputs":[],"name":"contributorsCount","outputs":[{"internalType":"uint256","name":"","type":"uint256"}],"stateMutability":"view","type":"function"},{"inputs":[{"internalType":"string","name":"description","type":"string"},{"internalType":"uint256","name":"value","type":"uint256"},{"internalType":"address payable","name":"recipient","type":"address"}],"name":"createRequest","outputs":[],"stateMutability":"nonpayable","type":"function"},{"inputs":[{"internalType":"uint256","name":"requestIndex","type":"uint256"}],"name":"finalizeRequest","outputs":[],"stateMutability":"payable","type":"function"},{"inputs":[],"name":"manager","outputs":[{"internalType":"address","name":"","type":"address"}],"stateMutability":"view","type":"function"},{"inputs":[],"name":"minimumContribution","outputs":[{"internalType":"uint256","name":"","type":"uint256"}],"stateMutability":"view","type":"function"},{"inputs":[{"internalType":"uint256","name":"","type":"uint256"}],"name":"requests","outputs":[{"internalType":"string","name":"description","type":"string"},{"internalType":"uint256","name":"value","type":"uint256"},{"internalType":"address payable","name":"recipient","type":"address"},{"internalType":"bool","name":"complete","type":"bool"},{"internalType":"uint256","name":"approvalsCount","type":"uint256"}],"stateMutability":"view","type":"function"}],"devdoc":{"kind":"dev","methods":{},"version":1},"evm":{"assembly":"    /* \"Crowdfund.sol\":458:2425  contract Crowdfund {... */\n  mstore(0x40, 0x80)\n    /* \"Crowdfund.sol\":996:1116  constructor(uint minimum, address creator) {... */\n  callvalue\n  dup1\n  iszero\n  tag_1\n  jumpi\n  0x00\n  dup1\n  revert\ntag_1:\n  pop\n  mload(0x40)\n  sub(codesize, bytecodeSize)\n  dup1\n  bytecodeSize\n  dup4\n  codecopy\n  dup2\n  dup2\n  add\n  0x40\n  mstore\n  dup2\n  add\n  swap1\n  tag_2\n  swap2\n  swap1\n  tag_3\n  jump\t// in\ntag_2:\n    /* \"Crowdfund.sol\":1060:1067  creator */\n  dup1\n    /* \"Crowdfund.sol\":1050:1057  manager */\n  0x00\n  dup1\n    /* \"Crowdfund.sol\":1050:1067  manager = creator */\n  0x0100\n  exp\n  dup2\n  sload\n  dup2\n  0xffffffffffffffffffffffffffffffffffffffff\n  mul\n  not\n  and\n  swap1\n  dup4\n  0xffffffffffffffffffffffffffffffffffffffff\n  and\n  mul\n  or\n  swap1\n  sstore\n  pop\n    /* \"Crowdfund.sol\":1101:1108  minimum */\n  dup2\n    /* \"Crowdfund.sol\":1079:1098  minimumContribution */\n  0x01\n    /* \"Crowdfund.sol\":1079:1108  minimumContribution = minimum */\n  dup2\n  swap1\n  sstore\n  pop\n    /* \"Crowdfund.sol\":996:1116  constructor(uint minimum, address creator) {... */\n  pop\n  pop\n    /* \"Crowdfund.sol\":458:2425  contract Crowdfund {... */\n  jump(tag_6)\n    /* \"#utility.yul\":88:205   */\ntag_8:\n    /* \"#utility.yul\":197:198   */\n  0x00\n    /* \"#utility.yul\":194:195   */\n  dup1\n    /* \"#utility.yul\":187:199   */\n  revert\n    /* \"#utility.yul\":334:411   */\ntag_10:\n    /* \"#utility.yul\":371:378   */\n  0x00\n    /* \"#utility.yul\":400:405   */\n  dup2\n    /* \"#utility.yul\":389:405   */\n  swap1\n  pop\n    /* \"#utility.yul\":334:411   */\n  swap2\n  swap1\n  pop\n  jump\t// out\n    /* \"#utility.yul\":417:539   */\ntag_11:\n    /* \"#utility.yul\":490:514   */\n  tag_23\n    /* \"#utility.yul\":508:513   */\n  dup2\n    /* \"#utility.yul\":490:514   */\n  tag_10\n  jump\t// in\ntag_23:\n    /* \"#utility.yul\":483:488   */\n  dup2\n    /* \"#utility.yul\":480:515   */\n  eq\n    /* \"#utility.yul\":470:533   */\n  tag_24\n  jumpi\n    /* \"#utility.yul\":529:530   */\n  0x00\n    /* \"#utility.yul\":526:527   */\n  dup1\n    /* \"#utility.yul\":519:531   */\n  revert\n    /* \"#utility.yul\":470:533   */\ntag_24:\n    /* \"#utility.yul\":417:539   */\n  pop\n  jump\t// out\n    /* \"#utility.yul\":545:688   */\ntag_12:\n    /* \"#utility.yul\":602:607   */\n  0x00\n    /* \"#utility.yul\":633:639   */\n  dup2\n    /* \"#utility.yul\":627:640   */\n  mload\n    /* \"#utility.yul\":618:640   */\n  swap1\n  pop\n    /* \"#utility.yul\":649:682   */\n  tag_26\n    /* \"#utility.yul\":676:681   */\n  dup2\n    /* \"#utility.yul\":649:682   */\n  tag_11\n  jump\t// in\ntag_26:\n    /* \"#utility.yul\":545:688   */\n  swap3\n  swap2\n  pop\n  pop\n  jump\t// out\n    /* \"#utility.yul\":694:820   */\ntag_13:\n    /* \"#utility.yul\":731:738   */\n  0x00\n    /* \"#utility.yul\":771:813   */\n  0xffffffffffffffffffffffffffffffffffffffff\n    /* \"#utility.yul\":764:769   */\n  dup3\n    /* \"#utility.yul\":760:814   */\n  and\n    /* \"#utility.yul\":749:814   */\n  swap1\n  pop\n    /* \"#utility.yul\":694:820   */\n  swap2\n  swap1\n  pop\n  jump\t// out\n    /* \"#utility.yul\":826:922   */\ntag_14:\n    /* \"#utility.yul\":863:870   */\n  0x00\n    /* \"#utility.yul\":892:916   */\n  tag_29\n    /* \"#utility.yul\":910:915   */\n  dup3\n    /* \"#utility.yul\":892:916   */\n  tag_13\n  jump\t// in\ntag_29:\n    /* \"#utility.yul\":881:916   */\n  swap1\n  pop\n    /* \"#utility.yul\":826:922   */\n  swap2\n  swap1\n  pop\n  jump\t// out\n    /* \"#utility.yul\":928:1050   */\ntag_15:\n    /* \"#utility.yul\":1001:1025   */\n  tag_31\n    /* \"#utility.yul\":1019:1024   */\n  dup2\n    /* \"#utility.yul\":1001:1025   */\n  tag_14\n  jump\t// in\ntag_31:\n    /* \"#utility.yul\":994:999   */\n  dup2\n    /* \"#utility.yul\":991:1026   */\n  eq\n    /* \"#utility.yul\":981:1044   */\n  tag_32\n  jumpi\n    /* \"#utility.yul\":1040:1041   */\n  0x00\n    /* \"#utility.yul\":1037:1038   */\n  dup1\n    /* \"#utility.yul\":1030:1042   */\n  revert\n    /* \"#utility.yul\":981:1044   */\ntag_32:\n    /* \"#utility.yul\":928:1050   */\n  pop\n  jump\t// out\n    /* \"#utility.yul\":1056:1199   */\ntag_16:\n    /* \"#utility.yul\":1113:1118   */\n  0x00\n    /* \"#utility.yul\":1144:1150   */\n  dup2\n    /* \"#utility.yul\":1138:1151   */\n  mload\n    /* \"#utility.yul\":1129:1151   */\n  swap1\n  pop\n    /* \"#utility.yul\":1160:1193   */\n  tag_34\n    /* \"#utility.yul\":1187:1192   */\n  dup2\n    /* \"#utility.yul\":1160:1193   */\n  tag_15\n  jump\t// in\ntag_34:\n    /* \"#utility.yul\":1056:1199   */\n  swap3\n  swap2\n  pop\n  pop\n  jump\t// out\n    /* \"#utility.yul\":1205:1712   */\ntag_3:\n    /* \"#utility.yul\":1284:1290   */\n  0x00\n    /* \"#utility.yul\":1292:1298   */\n  dup1\n    /* \"#utility.yul\":1341:1343   */\n  0x40\n    /* \"#utility.yul\":1329:1338   */\n  dup4\n    /* \"#utility.yul\":1320:1327   */\n  dup6\n    /* \"#utility.yul\":1316:1339   */\n  sub\n    /* \"#utility.yul\":1312:1344   */\n  slt\n    /* \"#utility.yul\":1309:1428   */\n  iszero\n  tag_36\n  jumpi\n    /* \"#utility.yul\":1347:1426   */\n  tag_37\n  tag_8\n  jump\t// in\ntag_37:\n    /* \"#utility.yul\":1309:1428   */\ntag_36:\n    /* \"#utility.yul\":1467:1468   */\n  0x00\n    /* \"#utility.yul\":1492:1556   */\n  tag_38\n    /* \"#utility.yul\":1548:1555   */\n  dup6\n    /* \"#utility.yul\":1539:1545   */\n  dup3\n    /* \"#utility.yul\":1528:1537   */\n  dup7\n    /* \"#utility.yul\":1524:1546   */\n  add\n    /* \"#utility.yul\":1492:1556   */\n  tag_12\n  jump\t// in\ntag_38:\n    /* \"#utility.yul\":1482:1556   */\n  swap3\n  pop\n    /* \"#utility.yul\":1438:1566   */\n  pop\n    /* \"#utility.yul\":1605:1607   */\n  0x20\n    /* \"#utility.yul\":1631:1695   */\n  tag_39\n    /* \"#utility.yul\":1687:1694   */\n  dup6\n    /* \"#utility.yul\":1678:1684   */\n  dup3\n    /* \"#utility.yul\":1667:1676   */\n  dup7\n    /* \"#utility.yul\":1663:1685   */\n  add\n    /* \"#utility.yul\":1631:1695   */\n  tag_16\n  jump\t// in\ntag_39:\n    /* \"#utility.yul\":1621:1695   */\n  swap2\n  pop\n    /* \"#utility.yul\":1576:1705   */\n  pop\n    /* \"#utility.yul\":1205:1712   */\n  swap3\n  pop\n  swap3\n  swap1\n  pop\n  jump\t// out\n    /* \"Crowdfund.sol\":458:2425  contract Crowdfund {... */\ntag_6:\n  dataSize(sub_0)\n  dup1\n  dataOffset(sub_0)\n  0x00\n  codecopy\n  0x00\n  return\nstop\n\nsub_0: assembly {\n        /* \"Crowdfund.sol\":458:2425  contract Crowdfund {... */\n      mstore(0x40, 0x80)\n      jumpi(tag_1, lt(calldatasize, 0x04))\n      shr(0xe0, calldataload(0x00))\n      dup1\n      0x8a9cfd55\n      gt\n      tag_12\n      jumpi\n      dup1\n      0x8a9cfd55\n      eq\n      tag_7\n      jumpi\n      dup1\n      0x937e09b1\n      eq\n      tag_8\n      jumpi\n      dup1\n      0xab2850da\n      eq\n      tag_9\n      jumpi\n      dup1\n      0xd7bb99ba\n      eq\n      tag_10\n      jumpi\n      dup1\n      0xd7d1bbdb\n      eq\n      tag_11\n      jumpi\n      jump(tag_1)\n    tag_12:\n      dup1\n      0x03441006\n      eq\n      tag_2\n      jumpi\n      dup1\n      0x0a144391\n      eq\n      tag_3\n      jumpi\n      dup1\n      0x481c6a75\n      eq\n      tag_4\n      jumpi\n      dup1\n      0x7569b3d7\n      eq\n      tag_5\n      jumpi\n      dup1\n      0x81d12c58\n      eq\n      tag_6\n      jumpi\n    tag_1:\n      0x00\n      dup1\n      revert\n        /* \"Crowdfund.sol\":2021:2422  function finalizeRequest(uint requestIndex) public payable restricted {... */\n    tag_2:\n      tag_13\n      0x04\n      dup1\n      calldatasize\n      sub\n      dup2\n      add\n      swap1\n      tag_14\n      swap2\n      swap1\n      tag_15\n      jump\t// in\n    tag_14:\n      tag_16\n      jump\t// in\n    tag_13:\n      stop\n        /* \"Crowdfund.sol\":722:763  mapping(address => bool) public approvers */\n    tag_3:\n      callvalue\n      dup1\n      iszero\n      tag_17\n      jumpi\n      0x00\n      dup1\n      revert\n    tag_17:\n      pop\n      tag_18\n      0x04\n      dup1\n      calldatasize\n      sub\n      dup2\n      add\n      swap1\n      tag_19\n      swap2\n      swap1\n      tag_20\n      jump\t// in\n    tag_19:\n      tag_21\n      jump\t// in\n    tag_18:\n      mload(0x40)\n      tag_22\n      swap2\n      swap1\n      tag_23\n      jump\t// in\n    tag_22:\n      mload(0x40)\n      dup1\n      swap2\n      sub\n      swap1\n      return\n        /* \"Crowdfund.sol\":655:677  address public manager */\n    tag_4:\n      callvalue\n      dup1\n      iszero\n      tag_24\n      jumpi\n      0x00\n      dup1\n      revert\n    tag_24:\n      pop\n      tag_25\n      tag_26\n      jump\t// in\n    tag_25:\n      mload(0x40)\n      tag_27\n      swap2\n      swap1\n      tag_28\n      jump\t// in\n    tag_27:\n      mload(0x40)\n      dup1\n      swap2\n      sub\n      swap1\n      return\n        /* \"Crowdfund.sol\":867:896  uint public contributorsCount */\n    tag_5:\n      callvalue\n      dup1\n      iszero\n      tag_29\n      jumpi\n      0x00\n      dup1\n      revert\n    tag_29:\n      pop\n      tag_30\n      tag_31\n      jump\t// in\n    tag_30:\n      mload(0x40)\n      tag_32\n      swap2\n      swap1\n      tag_33\n      jump\t// in\n    tag_32:\n      mload(0x40)\n      dup1\n      swap2\n      sub\n      swap1\n      return\n        /* \"Crowdfund.sol\":835:860  Request[] public requests */\n    tag_6:\n      callvalue\n      dup1\n      iszero\n      tag_34\n      jumpi\n      0x00\n      dup1\n      revert\n    tag_34:\n      pop\n      tag_35\n      0x04\n      dup1\n      calldatasize\n      sub\n      dup2\n      add\n      swap1\n      tag_36\n      swap2\n      swap1\n      tag_15\n      jump\t// in\n    tag_36:\n      tag_37\n      jump\t// in\n    tag_35:\n      mload(0x40)\n      tag_38\n      swap6\n      swap5\n      swap4\n      swap3\n      swap2\n      swap1\n      tag_39\n      jump\t// in\n    tag_38:\n      mload(0x40)\n      dup1\n      swap2\n      sub\n      swap1\n      return\n        /* \"Crowdfund.sol\":1299:1704  function createRequest(... */\n    tag_7:\n      callvalue\n      dup1\n      iszero\n      tag_40\n      jumpi\n      0x00\n      dup1\n      revert\n    tag_40:\n      pop\n      tag_41\n      0x04\n      dup1\n      calldatasize\n      sub\n      dup2\n      add\n      swap1\n      tag_42\n      swap2\n      swap1\n      tag_43\n      jump\t// in\n    tag_42:\n      tag_44\n      jump\t// in\n    tag_41:\n      stop\n        /* \"Crowdfund.sol\":684:715  uint public minimumContribution */\n    tag_8:\n      callvalue\n      dup1\n      iszero\n      tag_45\n      jumpi\n      0x00\n      dup1\n      revert\n    tag_45:\n      pop\n      tag_46\n      tag_47\n      jump\t// in\n    tag_46:\n      mload(0x40)\n      tag_48\n      swap2\n      swap1\n      tag_33\n      jump\t// in\n    tag_48:\n      mload(0x40)\n      dup1\n      swap2\n      sub\n      swap1\n      return\n        /* \"Crowdfund.sol\":770:828  mapping(uint => mapping(address => bool)) public approvals */\n    tag_9:\n      callvalue\n      dup1\n      iszero\n      tag_49\n      jumpi\n      0x00\n      dup1\n      revert\n    tag_49:\n      pop\n      tag_50\n      0x04\n      dup1\n      calldatasize\n      sub\n      dup2\n      add\n      swap1\n      tag_51\n      swap2\n      swap1\n      tag_52\n      jump\t// in\n    tag_51:\n      tag_53\n      jump\t// in\n    tag_50:\n      mload(0x40)\n      tag_54\n      swap2\n      swap1\n      tag_23\n      jump\t// in\n    tag_54:\n      mload(0x40)\n      dup1\n      swap2\n      sub\n      swap1\n      return\n        /* \"Crowdfund.sol\":1124:1291  function contribute() public payable {... */\n    tag_10:\n      tag_55\n      tag_56\n      jump\t// in\n    tag_55:\n      stop\n        /* \"Crowdfund.sol\":1712:2013  function approveRequest(uint requestIndex) public {... */\n    tag_11:\n      callvalue\n      dup1\n      iszero\n      tag_57\n      jumpi\n      0x00\n      dup1\n      revert\n    tag_57:\n      pop\n      tag_58\n      0x04\n      dup1\n      calldatasize\n      sub\n      dup2\n      add\n      swap1\n      tag_59\n      swap2\n      swap1\n      tag_15\n      jump\t// in\n    tag_59:\n      tag_60\n      jump\t// in\n    tag_58:\n      stop\n        /* \"Crowdfund.sol\":2021:2422  function finalizeRequest(uint requestIndex) public payable restricted {... */\n    tag_16:\n        /* \"Crowdfund.sol\":960:967  manager */\n      0x00\n      dup1\n      sload\n      swap1\n      0x0100\n      exp\n      swap1\n      div\n      0xffffffffffffffffffffffffffffffffffffffff\n      and\n        /* \"Crowdfund.sol\":946:967  msg.sender == manager */\n      0xffffffffffffffffffffffffffffffffffffffff\n      and\n        /* \"Crowdfund.sol\":946:956  msg.sender */\n      caller\n        /* \"Crowdfund.sol\":946:967  msg.sender == manager */\n      0xffffffffffffffffffffffffffffffffffffffff\n      and\n      eq\n        /* \"Crowdfund.sol\":938:968  require(msg.sender == manager) */\n      tag_62\n      jumpi\n      0x00\n      dup1\n      revert\n    tag_62:\n        /* \"Crowdfund.sol\":2102:2125  Request storage request */\n      0x00\n        /* \"Crowdfund.sol\":2128:2136  requests */\n      0x04\n        /* \"Crowdfund.sol\":2137:2149  requestIndex */\n      dup3\n        /* \"Crowdfund.sol\":2128:2150  requests[requestIndex] */\n      dup2\n      sload\n      dup2\n      lt\n      tag_64\n      jumpi\n      tag_65\n      tag_66\n      jump\t// in\n    tag_65:\n    tag_64:\n      swap1\n      0x00\n      mstore\n      keccak256(0x00, 0x20)\n      swap1\n      0x04\n      mul\n      add\n        /* \"Crowdfund.sol\":2102:2150  Request storage request = requests[requestIndex] */\n      swap1\n      pop\n        /* \"Crowdfund.sol\":2215:2216  2 */\n      0x02\n        /* \"Crowdfund.sol\":2195:2212  contributorsCount */\n      sload(0x05)\n        /* \"Crowdfund.sol\":2195:2216  contributorsCount / 2 */\n      tag_68\n      swap2\n      swap1\n      tag_69\n      jump\t// in\n    tag_68:\n        /* \"Crowdfund.sol\":2169:2176  request */\n      dup2\n        /* \"Crowdfund.sol\":2169:2191  request.approvalsCount */\n      0x03\n      add\n      sload\n        /* \"Crowdfund.sol\":2169:2217  request.approvalsCount > (contributorsCount / 2) */\n      gt\n        /* \"Crowdfund.sol\":2161:2289  require(request.approvalsCount > (contributorsCount / 2), ... */\n      tag_70\n      jumpi\n      mload(0x40)\n      0x08c379a000000000000000000000000000000000000000000000000000000000\n      dup2\n      mstore\n      0x04\n      add\n      tag_71\n      swap1\n      tag_72\n      jump\t// in\n    tag_71:\n      mload(0x40)\n      dup1\n      swap2\n      sub\n      swap1\n      revert\n    tag_70:\n        /* \"Crowdfund.sol\":2309:2316  request */\n      dup1\n        /* \"Crowdfund.sol\":2309:2325  request.complete */\n      0x02\n      add\n      0x14\n      swap1\n      sload\n      swap1\n      0x0100\n      exp\n      swap1\n      div\n      0xff\n      and\n        /* \"Crowdfund.sol\":2308:2325  !request.complete */\n      iszero\n        /* \"Crowdfund.sol\":2300:2326  require(!request.complete) */\n      tag_73\n      jumpi\n      0x00\n      dup1\n      revert\n    tag_73:\n        /* \"Crowdfund.sol\":2339:2346  request */\n      dup1\n        /* \"Crowdfund.sol\":2339:2356  request.recipient */\n      0x02\n      add\n      0x00\n      swap1\n      sload\n      swap1\n      0x0100\n      exp\n      swap1\n      div\n      0xffffffffffffffffffffffffffffffffffffffff\n      and\n        /* \"Crowdfund.sol\":2339:2365  request.recipient.transfer */\n      0xffffffffffffffffffffffffffffffffffffffff\n      and\n        /* \"Crowdfund.sol\":2339:2380  request.recipient.transfer(request.value) */\n      0x08fc\n        /* \"Crowdfund.sol\":2366:2373  request */\n      dup3\n        /* \"Crowdfund.sol\":2366:2379  request.value */\n      0x01\n      add\n      sload\n        /* \"Crowdfund.sol\":2339:2380  request.recipient.transfer(request.value) */\n      swap1\n      dup2\n      iszero\n      mul\n      swap1\n      mload(0x40)\n      0x00\n      mload(0x40)\n      dup1\n      dup4\n      sub\n      dup2\n      dup6\n      dup9\n      dup9\n      call\n      swap4\n      pop\n      pop\n      pop\n      pop\n      iszero\n      dup1\n      iszero\n      tag_75\n      jumpi\n      returndatasize\n      0x00\n      dup1\n      returndatacopy\n      revert(0x00, returndatasize)\n    tag_75:\n      pop\n        /* \"Crowdfund.sol\":2410:2414  true */\n      0x01\n        /* \"Crowdfund.sol\":2391:2398  request */\n      dup2\n        /* \"Crowdfund.sol\":2391:2407  request.complete */\n      0x02\n      add\n      0x14\n        /* \"Crowdfund.sol\":2391:2414  request.complete = true */\n      0x0100\n      exp\n      dup2\n      sload\n      dup2\n      0xff\n      mul\n      not\n      and\n      swap1\n      dup4\n      iszero\n      iszero\n      mul\n      or\n      swap1\n      sstore\n      pop\n        /* \"Crowdfund.sol\":2091:2422  {... */\n      pop\n        /* \"Crowdfund.sol\":2021:2422  function finalizeRequest(uint requestIndex) public payable restricted {... */\n      pop\n      jump\t// out\n        /* \"Crowdfund.sol\":722:763  mapping(address => bool) public approvers */\n    tag_21:\n      mstore(0x20, 0x02)\n      dup1\n      0x00\n      mstore\n      keccak256(0x00, 0x40)\n      0x00\n      swap2\n      pop\n      sload\n      swap1\n      0x0100\n      exp\n      swap1\n      div\n      0xff\n      and\n      dup2\n      jump\t// out\n        /* \"Crowdfund.sol\":655:677  address public manager */\n    tag_26:\n      0x00\n      dup1\n      sload\n      swap1\n      0x0100\n      exp\n      swap1\n      div\n      0xffffffffffffffffffffffffffffffffffffffff\n      and\n      dup2\n      jump\t// out\n        /* \"Crowdfund.sol\":867:896  uint public contributorsCount */\n    tag_31:\n      sload(0x05)\n      dup2\n      jump\t// out\n        /* \"Crowdfund.sol\":835:860  Request[] public requests */\n    tag_37:\n      0x04\n      dup2\n      dup2\n      sload\n      dup2\n      lt\n      tag_76\n      jumpi\n      0x00\n      dup1\n      revert\n    tag_76:\n      swap1\n      0x00\n      mstore\n      keccak256(0x00, 0x20)\n      swap1\n      0x04\n      mul\n      add\n      0x00\n      swap2\n      pop\n      swap1\n      pop\n      dup1\n      0x00\n      add\n      dup1\n      sload\n      tag_78\n      swap1\n      tag_79\n      jump\t// in\n    tag_78:\n      dup1\n      0x1f\n      add\n      0x20\n      dup1\n      swap2\n      div\n      mul\n      0x20\n      add\n      mload(0x40)\n      swap1\n      dup2\n      add\n      0x40\n      mstore\n      dup1\n      swap3\n      swap2\n      swap1\n      dup2\n      dup2\n      mstore\n      0x20\n      add\n      dup3\n      dup1\n      sload\n      tag_80\n      swap1\n      tag_79\n      jump\t// in\n    tag_80:\n      dup1\n      iszero\n      tag_81\n      jumpi\n      dup1\n      0x1f\n      lt\n      tag_82\n      jumpi\n      0x0100\n      dup1\n      dup4\n      sload\n      div\n      mul\n      dup4\n      mstore\n      swap2\n      0x20\n      add\n      swap2\n      jump(tag_81)\n    tag_82:\n      dup3\n      add\n      swap2\n      swap1\n      0x00\n      mstore\n      keccak256(0x00, 0x20)\n      swap1\n    tag_83:\n      dup2\n      sload\n      dup2\n      mstore\n      swap1\n      0x01\n      add\n      swap1\n      0x20\n      add\n      dup1\n      dup4\n      gt\n      tag_83\n      jumpi\n      dup3\n      swap1\n      sub\n      0x1f\n      and\n      dup3\n      add\n      swap2\n    tag_81:\n      pop\n      pop\n      pop\n      pop\n      pop\n      swap1\n      dup1\n      0x01\n      add\n      sload\n      swap1\n      dup1\n      0x02\n      add\n      0x00\n      swap1\n      sload\n      swap1\n      0x0100\n      exp\n      swap1\n      div\n      0xffffffffffffffffffffffffffffffffffffffff\n      and\n      swap1\n      dup1\n      0x02\n      add\n      0x14\n      swap1\n      sload\n      swap1\n      0x0100\n      exp\n      swap1\n      div\n      0xff\n      and\n      swap1\n      dup1\n      0x03\n      add\n      sload\n      swap1\n      pop\n      dup6\n      jump\t// out\n        /* \"Crowdfund.sol\":1299:1704  function createRequest(... */\n    tag_44:\n        /* \"Crowdfund.sol\":960:967  manager */\n      0x00\n      dup1\n      sload\n      swap1\n      0x0100\n      exp\n      swap1\n      div\n      0xffffffffffffffffffffffffffffffffffffffff\n      and\n        /* \"Crowdfund.sol\":946:967  msg.sender == manager */\n      0xffffffffffffffffffffffffffffffffffffffff\n      and\n        /* \"Crowdfund.sol\":946:956  msg.sender */\n      caller\n        /* \"Crowdfund.sol\":946:967  msg.sender == manager */\n      0xffffffffffffffffffffffffffffffffffffffff\n      and\n      eq\n        /* \"Crowdfund.sol\":938:968  require(msg.sender == manager) */\n      tag_85\n      jumpi\n      0x00\n      dup1\n      revert\n    tag_85:\n        /* \"Crowdfund.sol\":1447:1472  Request memory newRequest */\n      0x00\n        /* \"Crowdfund.sol\":1475:1658  Request({... */\n      mload(0x40)\n      dup1\n      0xa0\n      add\n      0x40\n      mstore\n      dup1\n        /* \"Crowdfund.sol\":1511:1522  description */\n      dup6\n        /* \"Crowdfund.sol\":1475:1658  Request({... */\n      dup2\n      mstore\n      0x20\n      add\n        /* \"Crowdfund.sol\":1544:1549  value */\n      dup5\n        /* \"Crowdfund.sol\":1475:1658  Request({... */\n      dup2\n      mstore\n      0x20\n      add\n        /* \"Crowdfund.sol\":1575:1584  recipient */\n      dup4\n        /* \"Crowdfund.sol\":1475:1658  Request({... */\n      0xffffffffffffffffffffffffffffffffffffffff\n      and\n      dup2\n      mstore\n      0x20\n      add\n        /* \"Crowdfund.sol\":1609:1614  false */\n      0x00\n        /* \"Crowdfund.sol\":1475:1658  Request({... */\n      iszero\n      iszero\n      dup2\n      mstore\n      0x20\n      add\n        /* \"Crowdfund.sol\":1645:1646  0 */\n      0x00\n        /* \"Crowdfund.sol\":1475:1658  Request({... */\n      dup2\n      mstore\n      pop\n        /* \"Crowdfund.sol\":1447:1658  Request memory newRequest = Request({... */\n      swap1\n      pop\n        /* \"Crowdfund.sol\":1671:1679  requests */\n      0x04\n        /* \"Crowdfund.sol\":1685:1695  newRequest */\n      dup2\n        /* \"Crowdfund.sol\":1671:1696  requests.push(newRequest) */\n      swap1\n      dup1\n      0x01\n      dup2\n      sload\n      add\n      dup1\n      dup3\n      sstore\n      dup1\n      swap2\n      pop\n      pop\n      0x01\n      swap1\n      sub\n      swap1\n      0x00\n      mstore\n      keccak256(0x00, 0x20)\n      swap1\n      0x04\n      mul\n      add\n      0x00\n      swap1\n      swap2\n      swap1\n      swap2\n      swap1\n      swap2\n      pop\n      0x00\n      dup3\n      add\n      mload\n      dup2\n      0x00\n      add\n      swap1\n      dup2\n      tag_88\n      swap2\n      swap1\n      tag_89\n      jump\t// in\n    tag_88:\n      pop\n      0x20\n      dup3\n      add\n      mload\n      dup2\n      0x01\n      add\n      sstore\n      0x40\n      dup3\n      add\n      mload\n      dup2\n      0x02\n      add\n      exp(0x0100, 0x00)\n      dup2\n      sload\n      dup2\n      0xffffffffffffffffffffffffffffffffffffffff\n      mul\n      not\n      and\n      swap1\n      dup4\n      0xffffffffffffffffffffffffffffffffffffffff\n      and\n      mul\n      or\n      swap1\n      sstore\n      pop\n      0x60\n      dup3\n      add\n      mload\n      dup2\n      0x02\n      add\n      exp(0x0100, 0x14)\n      dup2\n      sload\n      dup2\n      0xff\n      mul\n      not\n      and\n      swap1\n      dup4\n      iszero\n      iszero\n      mul\n      or\n      swap1\n      sstore\n      pop\n      0x80\n      dup3\n      add\n      mload\n      dup2\n      0x03\n      add\n      sstore\n      pop\n      pop\n        /* \"Crowdfund.sol\":1436:1704  {... */\n      pop\n        /* \"Crowdfund.sol\":1299:1704  function createRequest(... */\n      pop\n      pop\n      pop\n      jump\t// out\n        /* \"Crowdfund.sol\":684:715  uint public minimumContribution */\n    tag_47:\n      sload(0x01)\n      dup2\n      jump\t// out\n        /* \"Crowdfund.sol\":770:828  mapping(uint => mapping(address => bool)) public approvals */\n    tag_53:\n      mstore(0x20, 0x03)\n      dup2\n      0x00\n      mstore\n      mstore(0x20, keccak256(0x00, 0x40))\n      dup1\n      0x00\n      mstore\n      keccak256(0x00, 0x40)\n      0x00\n      swap2\n      pop\n      swap2\n      pop\n      swap1\n      sload\n      swap1\n      0x0100\n      exp\n      swap1\n      div\n      0xff\n      and\n      dup2\n      jump\t// out\n        /* \"Crowdfund.sol\":1124:1291  function contribute() public payable {... */\n    tag_56:\n        /* \"Crowdfund.sol\":1192:1211  minimumContribution */\n      sload(0x01)\n        /* \"Crowdfund.sol\":1180:1189  msg.value */\n      callvalue\n        /* \"Crowdfund.sol\":1180:1211  msg.value > minimumContribution */\n      gt\n        /* \"Crowdfund.sol\":1172:1212  require(msg.value > minimumContribution) */\n      tag_91\n      jumpi\n      0x00\n      dup1\n      revert\n    tag_91:\n        /* \"Crowdfund.sol\":1249:1253  true */\n      0x01\n        /* \"Crowdfund.sol\":1225:1234  approvers */\n      0x02\n        /* \"Crowdfund.sol\":1225:1246  approvers[msg.sender] */\n      0x00\n        /* \"Crowdfund.sol\":1235:1245  msg.sender */\n      caller\n        /* \"Crowdfund.sol\":1225:1246  approvers[msg.sender] */\n      0xffffffffffffffffffffffffffffffffffffffff\n      and\n      0xffffffffffffffffffffffffffffffffffffffff\n      and\n      dup2\n      mstore\n      0x20\n      add\n      swap1\n      dup2\n      mstore\n      0x20\n      add\n      0x00\n      keccak256\n      0x00\n        /* \"Crowdfund.sol\":1225:1253  approvers[msg.sender] = true */\n      0x0100\n      exp\n      dup2\n      sload\n      dup2\n      0xff\n      mul\n      not\n      and\n      swap1\n      dup4\n      iszero\n      iszero\n      mul\n      or\n      swap1\n      sstore\n      pop\n        /* \"Crowdfund.sol\":1264:1281  contributorsCount */\n      0x05\n      0x00\n        /* \"Crowdfund.sol\":1264:1283  contributorsCount++ */\n      dup2\n      sload\n      dup1\n      swap3\n      swap2\n      swap1\n      tag_92\n      swap1\n      tag_93\n      jump\t// in\n    tag_92:\n      swap2\n      swap1\n      pop\n      sstore\n      pop\n        /* \"Crowdfund.sol\":1124:1291  function contribute() public payable {... */\n      jump\t// out\n        /* \"Crowdfund.sol\":1712:2013  function approveRequest(uint requestIndex) public {... */\n    tag_60:\n        /* \"Crowdfund.sol\":1781:1790  approvers */\n      0x02\n        /* \"Crowdfund.sol\":1781:1802  approvers[msg.sender] */\n      0x00\n        /* \"Crowdfund.sol\":1791:1801  msg.sender */\n      caller\n        /* \"Crowdfund.sol\":1781:1802  approvers[msg.sender] */\n      0xffffffffffffffffffffffffffffffffffffffff\n      and\n      0xffffffffffffffffffffffffffffffffffffffff\n      and\n      dup2\n      mstore\n      0x20\n      add\n      swap1\n      dup2\n      mstore\n      0x20\n      add\n      0x00\n      keccak256\n      0x00\n      swap1\n      sload\n      swap1\n      0x0100\n      exp\n      swap1\n      div\n      0xff\n      and\n        /* \"Crowdfund.sol\":1773:1803  require(approvers[msg.sender]) */\n      tag_95\n      jumpi\n      0x00\n      dup1\n      revert\n    tag_95:\n        /* \"Crowdfund.sol\":1836:1843  manager */\n      0x00\n      dup1\n      sload\n      swap1\n      0x0100\n      exp\n      swap1\n      div\n      0xffffffffffffffffffffffffffffffffffffffff\n      and\n        /* \"Crowdfund.sol\":1822:1843  msg.sender != manager */\n      0xffffffffffffffffffffffffffffffffffffffff\n      and\n        /* \"Crowdfund.sol\":1822:1832  msg.sender */\n      caller\n        /* \"Crowdfund.sol\":1822:1843  msg.sender != manager */\n      0xffffffffffffffffffffffffffffffffffffffff\n      and\n      sub\n        /* \"Crowdfund.sol\":1814:1844  require(msg.sender != manager) */\n      tag_96\n      jumpi\n      0x00\n      dup1\n      revert\n    tag_96:\n        /* \"Crowdfund.sol\":1864:1873  approvals */\n      0x03\n        /* \"Crowdfund.sol\":1864:1887  approvals[requestIndex] */\n      0x00\n        /* \"Crowdfund.sol\":1874:1886  requestIndex */\n      dup3\n        /* \"Crowdfund.sol\":1864:1887  approvals[requestIndex] */\n      dup2\n      mstore\n      0x20\n      add\n      swap1\n      dup2\n      mstore\n      0x20\n      add\n      0x00\n      keccak256\n        /* \"Crowdfund.sol\":1864:1899  approvals[requestIndex][msg.sender] */\n      0x00\n        /* \"Crowdfund.sol\":1888:1898  msg.sender */\n      caller\n        /* \"Crowdfund.sol\":1864:1899  approvals[requestIndex][msg.sender] */\n      0xffffffffffffffffffffffffffffffffffffffff\n      and\n      0xffffffffffffffffffffffffffffffffffffffff\n      and\n      dup2\n      mstore\n      0x20\n      add\n      swap1\n      dup2\n      mstore\n      0x20\n      add\n      0x00\n      keccak256\n      0x00\n      swap1\n      sload\n      swap1\n      0x0100\n      exp\n      swap1\n      div\n      0xff\n      and\n        /* \"Crowdfund.sol\":1863:1899  !approvals[requestIndex][msg.sender] */\n      iszero\n        /* \"Crowdfund.sol\":1855:1900  require(!approvals[requestIndex][msg.sender]) */\n      tag_97\n      jumpi\n      0x00\n      dup1\n      revert\n    tag_97:\n        /* \"Crowdfund.sol\":1951:1955  true */\n      0x01\n        /* \"Crowdfund.sol\":1913:1922  approvals */\n      0x03\n        /* \"Crowdfund.sol\":1913:1936  approvals[requestIndex] */\n      0x00\n        /* \"Crowdfund.sol\":1923:1935  requestIndex */\n      dup4\n        /* \"Crowdfund.sol\":1913:1936  approvals[requestIndex] */\n      dup2\n      mstore\n      0x20\n      add\n      swap1\n      dup2\n      mstore\n      0x20\n      add\n      0x00\n      keccak256\n        /* \"Crowdfund.sol\":1913:1948  approvals[requestIndex][msg.sender] */\n      0x00\n        /* \"Crowdfund.sol\":1937:1947  msg.sender */\n      caller\n        /* \"Crowdfund.sol\":1913:1948  approvals[requestIndex][msg.sender] */\n      0xffffffffffffffffffffffffffffffffffffffff\n      and\n      0xffffffffffffffffffffffffffffffffffffffff\n      and\n      dup2\n      mstore\n      0x20\n      add\n      swap1\n      dup2\n      mstore\n      0x20\n      add\n      0x00\n      keccak256\n      0x00\n        /* \"Crowdfund.sol\":1913:1955  approvals[requestIndex][msg.sender] = true */\n      0x0100\n      exp\n      dup2\n      sload\n      dup2\n      0xff\n      mul\n      not\n      and\n      swap1\n      dup4\n      iszero\n      iszero\n      mul\n      or\n      swap1\n      sstore\n      pop\n        /* \"Crowdfund.sol\":1966:1974  requests */\n      0x04\n        /* \"Crowdfund.sol\":1975:1987  requestIndex */\n      dup2\n        /* \"Crowdfund.sol\":1966:1988  requests[requestIndex] */\n      dup2\n      sload\n      dup2\n      lt\n      tag_98\n      jumpi\n      tag_99\n      tag_66\n      jump\t// in\n    tag_99:\n    tag_98:\n      swap1\n      0x00\n      mstore\n      keccak256(0x00, 0x20)\n      swap1\n      0x04\n      mul\n      add\n        /* \"Crowdfund.sol\":1966:2003  requests[requestIndex].approvalsCount */\n      0x03\n      add\n      0x00\n        /* \"Crowdfund.sol\":1966:2005  requests[requestIndex].approvalsCount++ */\n      dup2\n      sload\n      dup1\n      swap3\n      swap2\n      swap1\n      tag_101\n      swap1\n      tag_93\n      jump\t// in\n    tag_101:\n      swap2\n      swap1\n      pop\n      sstore\n      pop\n        /* \"Crowdfund.sol\":1712:2013  function approveRequest(uint requestIndex) public {... */\n      pop\n      jump\t// out\n        /* \"#utility.yul\":7:82   */\n    tag_102:\n        /* \"#utility.yul\":40:46   */\n      0x00\n        /* \"#utility.yul\":73:75   */\n      0x40\n        /* \"#utility.yul\":67:76   */\n      mload\n        /* \"#utility.yul\":57:76   */\n      swap1\n      pop\n        /* \"#utility.yul\":7:82   */\n      swap1\n      jump\t// out\n        /* \"#utility.yul\":88:205   */\n    tag_103:\n        /* \"#utility.yul\":197:198   */\n      0x00\n        /* \"#utility.yul\":194:195   */\n      dup1\n        /* \"#utility.yul\":187:199   */\n      revert\n        /* \"#utility.yul\":211:328   */\n    tag_104:\n        /* \"#utility.yul\":320:321   */\n      0x00\n        /* \"#utility.yul\":317:318   */\n      dup1\n        /* \"#utility.yul\":310:322   */\n      revert\n        /* \"#utility.yul\":334:411   */\n    tag_105:\n        /* \"#utility.yul\":371:378   */\n      0x00\n        /* \"#utility.yul\":400:405   */\n      dup2\n        /* \"#utility.yul\":389:405   */\n      swap1\n      pop\n        /* \"#utility.yul\":334:411   */\n      swap2\n      swap1\n      pop\n      jump\t// out\n        /* \"#utility.yul\":417:539   */\n    tag_106:\n        /* \"#utility.yul\":490:514   */\n      tag_160\n        /* \"#utility.yul\":508:513   */\n      dup2\n        /* \"#utility.yul\":490:514   */\n      tag_105\n      jump\t// in\n    tag_160:\n        /* \"#utility.yul\":483:488   */\n      dup2\n        /* \"#utility.yul\":480:515   */\n      eq\n        /* \"#utility.yul\":470:533   */\n      tag_161\n      jumpi\n        /* \"#utility.yul\":529:530   */\n      0x00\n        /* \"#utility.yul\":526:527   */\n      dup1\n        /* \"#utility.yul\":519:531   */\n      revert\n        /* \"#utility.yul\":470:533   */\n    tag_161:\n        /* \"#utility.yul\":417:539   */\n      pop\n      jump\t// out\n        /* \"#utility.yul\":545:684   */\n    tag_107:\n        /* \"#utility.yul\":591:596   */\n      0x00\n        /* \"#utility.yul\":629:635   */\n      dup2\n        /* \"#utility.yul\":616:636   */\n      calldataload\n        /* \"#utility.yul\":607:636   */\n      swap1\n      pop\n        /* \"#utility.yul\":645:678   */\n      tag_163\n        /* \"#utility.yul\":672:677   */\n      dup2\n        /* \"#utility.yul\":645:678   */\n      tag_106\n      jump\t// in\n    tag_163:\n        /* \"#utility.yul\":545:684   */\n      swap3\n      swap2\n      pop\n      pop\n      jump\t// out\n        /* \"#utility.yul\":690:1019   */\n    tag_15:\n        /* \"#utility.yul\":749:755   */\n      0x00\n        /* \"#utility.yul\":798:800   */\n      0x20\n        /* \"#utility.yul\":786:795   */\n      dup3\n        /* \"#utility.yul\":777:784   */\n      dup5\n        /* \"#utility.yul\":773:796   */\n      sub\n        /* \"#utility.yul\":769:801   */\n      slt\n        /* \"#utility.yul\":766:885   */\n      iszero\n      tag_165\n      jumpi\n        /* \"#utility.yul\":804:883   */\n      tag_166\n      tag_103\n      jump\t// in\n    tag_166:\n        /* \"#utility.yul\":766:885   */\n    tag_165:\n        /* \"#utility.yul\":924:925   */\n      0x00\n        /* \"#utility.yul\":949:1002   */\n      tag_167\n        /* \"#utility.yul\":994:1001   */\n      dup5\n        /* \"#utility.yul\":985:991   */\n      dup3\n        /* \"#utility.yul\":974:983   */\n      dup6\n        /* \"#utility.yul\":970:992   */\n      add\n        /* \"#utility.yul\":949:1002   */\n      tag_107\n      jump\t// in\n    tag_167:\n        /* \"#utility.yul\":939:1002   */\n      swap2\n      pop\n        /* \"#utility.yul\":895:1012   */\n      pop\n        /* \"#utility.yul\":690:1019   */\n      swap3\n      swap2\n      pop\n      pop\n      jump\t// out\n        /* \"#utility.yul\":1025:1151   */\n    tag_108:\n        /* \"#utility.yul\":1062:1069   */\n      0x00\n        /* \"#utility.yul\":1102:1144   */\n      0xffffffffffffffffffffffffffffffffffffffff\n        /* \"#utility.yul\":1095:1100   */\n      dup3\n        /* \"#utility.yul\":1091:1145   */\n      and\n        /* \"#utility.yul\":1080:1145   */\n      swap1\n      pop\n        /* \"#utility.yul\":1025:1151   */\n      swap2\n      swap1\n      pop\n      jump\t// out\n        /* \"#utility.yul\":1157:1253   */\n    tag_109:\n        /* \"#utility.yul\":1194:1201   */\n      0x00\n        /* \"#utility.yul\":1223:1247   */\n      tag_170\n        /* \"#utility.yul\":1241:1246   */\n      dup3\n        /* \"#utility.yul\":1223:1247   */\n      tag_108\n      jump\t// in\n    tag_170:\n        /* \"#utility.yul\":1212:1247   */\n      swap1\n      pop\n        /* \"#utility.yul\":1157:1253   */\n      swap2\n      swap1\n      pop\n      jump\t// out\n        /* \"#utility.yul\":1259:1381   */\n    tag_110:\n        /* \"#utility.yul\":1332:1356   */\n      tag_172\n        /* \"#utility.yul\":1350:1355   */\n      dup2\n        /* \"#utility.yul\":1332:1356   */\n      tag_109\n      jump\t// in\n    tag_172:\n        /* \"#utility.yul\":1325:1330   */\n      dup2\n        /* \"#utility.yul\":1322:1357   */\n      eq\n        /* \"#utility.yul\":1312:1375   */\n      tag_173\n      jumpi\n        /* \"#utility.yul\":1371:1372   */\n      0x00\n        /* \"#utility.yul\":1368:1369   */\n      dup1\n        /* \"#utility.yul\":1361:1373   */\n      revert\n        /* \"#utility.yul\":1312:1375   */\n    tag_173:\n        /* \"#utility.yul\":1259:1381   */\n      pop\n      jump\t// out\n        /* \"#utility.yul\":1387:1526   */\n    tag_111:\n        /* \"#utility.yul\":1433:1438   */\n      0x00\n        /* \"#utility.yul\":1471:1477   */\n      dup2\n        /* \"#utility.yul\":1458:1478   */\n      calldataload\n        /* \"#utility.yul\":1449:1478   */\n      swap1\n      pop\n        /* \"#utility.yul\":1487:1520   */\n      tag_175\n        /* \"#utility.yul\":1514:1519   */\n      dup2\n        /* \"#utility.yul\":1487:1520   */\n      tag_110\n      jump\t// in\n    tag_175:\n        /* \"#utility.yul\":1387:1526   */\n      swap3\n      swap2\n      pop\n      pop\n      jump\t// out\n        /* \"#utility.yul\":1532:1861   */\n    tag_20:\n        /* \"#utility.yul\":1591:1597   */\n      0x00\n        /* \"#utility.yul\":1640:1642   */\n      0x20\n        /* \"#utility.yul\":1628:1637   */\n      dup3\n        /* \"#utility.yul\":1619:1626   */\n      dup5\n        /* \"#utility.yul\":1615:1638   */\n      sub\n        /* \"#utility.yul\":1611:1643   */\n      slt\n        /* \"#utility.yul\":1608:1727   */\n      iszero\n      tag_177\n      jumpi\n        /* \"#utility.yul\":1646:1725   */\n      tag_178\n      tag_103\n      jump\t// in\n    tag_178:\n        /* \"#utility.yul\":1608:1727   */\n    tag_177:\n        /* \"#utility.yul\":1766:1767   */\n      0x00\n        /* \"#utility.yul\":1791:1844   */\n      tag_179\n        /* \"#utility.yul\":1836:1843   */\n      dup5\n        /* \"#utility.yul\":1827:1833   */\n      dup3\n        /* \"#utility.yul\":1816:1825   */\n      dup6\n        /* \"#utility.yul\":1812:1834   */\n      add\n        /* \"#utility.yul\":1791:1844   */\n      tag_111\n      jump\t// in\n    tag_179:\n        /* \"#utility.yul\":1781:1844   */\n      swap2\n      pop\n        /* \"#utility.yul\":1737:1854   */\n      pop\n        /* \"#utility.yul\":1532:1861   */\n      swap3\n      swap2\n      pop\n      pop\n      jump\t// out\n        /* \"#utility.yul\":1867:1957   */\n    tag_112:\n        /* \"#utility.yul\":1901:1908   */\n      0x00\n        /* \"#utility.yul\":1944:1949   */\n      dup2\n        /* \"#utility.yul\":1937:1950   */\n      iszero\n        /* \"#utility.yul\":1930:1951   */\n      iszero\n        /* \"#utility.yul\":1919:1951   */\n      swap1\n      pop\n        /* \"#utility.yul\":1867:1957   */\n      swap2\n      swap1\n      pop\n      jump\t// out\n        /* \"#utility.yul\":1963:2072   */\n    tag_113:\n        /* \"#utility.yul\":2044:2065   */\n      tag_182\n        /* \"#utility.yul\":2059:2064   */\n      dup2\n        /* \"#utility.yul\":2044:2065   */\n      tag_112\n      jump\t// in\n    tag_182:\n        /* \"#utility.yul\":2039:2042   */\n      dup3\n        /* \"#utility.yul\":2032:2066   */\n      mstore\n        /* \"#utility.yul\":1963:2072   */\n      pop\n      pop\n      jump\t// out\n        /* \"#utility.yul\":2078:2288   */\n    tag_23:\n        /* \"#utility.yul\":2165:2169   */\n      0x00\n        /* \"#utility.yul\":2203:2205   */\n      0x20\n        /* \"#utility.yul\":2192:2201   */\n      dup3\n        /* \"#utility.yul\":2188:2206   */\n      add\n        /* \"#utility.yul\":2180:2206   */\n      swap1\n      pop\n        /* \"#utility.yul\":2216:2281   */\n      tag_184\n        /* \"#utility.yul\":2278:2279   */\n      0x00\n        /* \"#utility.yul\":2267:2276   */\n      dup4\n        /* \"#utility.yul\":2263:2280   */\n      add\n        /* \"#utility.yul\":2254:2260   */\n      dup5\n        /* \"#utility.yul\":2216:2281   */\n      tag_113\n      jump\t// in\n    tag_184:\n        /* \"#utility.yul\":2078:2288   */\n      swap3\n      swap2\n      pop\n      pop\n      jump\t// out\n        /* \"#utility.yul\":2294:2412   */\n    tag_114:\n        /* \"#utility.yul\":2381:2405   */\n      tag_186\n        /* \"#utility.yul\":2399:2404   */\n      dup2\n        /* \"#utility.yul\":2381:2405   */\n      tag_109\n      jump\t// in\n    tag_186:\n        /* \"#utility.yul\":2376:2379   */\n      dup3\n        /* \"#utility.yul\":2369:2406   */\n      mstore\n        /* \"#utility.yul\":2294:2412   */\n      pop\n      pop\n      jump\t// out\n        /* \"#utility.yul\":2418:2640   */\n    tag_28:\n        /* \"#utility.yul\":2511:2515   */\n      0x00\n        /* \"#utility.yul\":2549:2551   */\n      0x20\n        /* \"#utility.yul\":2538:2547   */\n      dup3\n        /* \"#utility.yul\":2534:2552   */\n      add\n        /* \"#utility.yul\":2526:2552   */\n      swap1\n      pop\n        /* \"#utility.yul\":2562:2633   */\n      tag_188\n        /* \"#utility.yul\":2630:2631   */\n      0x00\n        /* \"#utility.yul\":2619:2628   */\n      dup4\n        /* \"#utility.yul\":2615:2632   */\n      add\n        /* \"#utility.yul\":2606:2612   */\n      dup5\n        /* \"#utility.yul\":2562:2633   */\n      tag_114\n      jump\t// in\n    tag_188:\n        /* \"#utility.yul\":2418:2640   */\n      swap3\n      swap2\n      pop\n      pop\n      jump\t// out\n        /* \"#utility.yul\":2646:2764   */\n    tag_115:\n        /* \"#utility.yul\":2733:2757   */\n      tag_190\n        /* \"#utility.yul\":2751:2756   */\n      dup2\n        /* \"#utility.yul\":2733:2757   */\n      tag_105\n      jump\t// in\n    tag_190:\n        /* \"#utility.yul\":2728:2731   */\n      dup3\n        /* \"#utility.yul\":2721:2758   */\n      mstore\n        /* \"#utility.yul\":2646:2764   */\n      pop\n      pop\n      jump\t// out\n        /* \"#utility.yul\":2770:2992   */\n    tag_33:\n        /* \"#utility.yul\":2863:2867   */\n      0x00\n        /* \"#utility.yul\":2901:2903   */\n      0x20\n        /* \"#utility.yul\":2890:2899   */\n      dup3\n        /* \"#utility.yul\":2886:2904   */\n      add\n        /* \"#utility.yul\":2878:2904   */\n      swap1\n      pop\n        /* \"#utility.yul\":2914:2985   */\n      tag_192\n        /* \"#utility.yul\":2982:2983   */\n      0x00\n        /* \"#utility.yul\":2971:2980   */\n      dup4\n        /* \"#utility.yul\":2967:2984   */\n      add\n        /* \"#utility.yul\":2958:2964   */\n      dup5\n        /* \"#utility.yul\":2914:2985   */\n      tag_115\n      jump\t// in\n    tag_192:\n        /* \"#utility.yul\":2770:2992   */\n      swap3\n      swap2\n      pop\n      pop\n      jump\t// out\n        /* \"#utility.yul\":2998:3097   */\n    tag_116:\n        /* \"#utility.yul\":3050:3056   */\n      0x00\n        /* \"#utility.yul\":3084:3089   */\n      dup2\n        /* \"#utility.yul\":3078:3090   */\n      mload\n        /* \"#utility.yul\":3068:3090   */\n      swap1\n      pop\n        /* \"#utility.yul\":2998:3097   */\n      swap2\n      swap1\n      pop\n      jump\t// out\n        /* \"#utility.yul\":3103:3272   */\n    tag_117:\n        /* \"#utility.yul\":3187:3198   */\n      0x00\n        /* \"#utility.yul\":3221:3227   */\n      dup3\n        /* \"#utility.yul\":3216:3219   */\n      dup3\n        /* \"#utility.yul\":3209:3228   */\n      mstore\n        /* \"#utility.yul\":3261:3265   */\n      0x20\n        /* \"#utility.yul\":3256:3259   */\n      dup3\n        /* \"#utility.yul\":3252:3266   */\n      add\n        /* \"#utility.yul\":3237:3266   */\n      swap1\n      pop\n        /* \"#utility.yul\":3103:3272   */\n      swap3\n      swap2\n      pop\n      pop\n      jump\t// out\n        /* \"#utility.yul\":3278:3524   */\n    tag_118:\n        /* \"#utility.yul\":3359:3360   */\n      0x00\n        /* \"#utility.yul\":3369:3482   */\n    tag_196:\n        /* \"#utility.yul\":3383:3389   */\n      dup4\n        /* \"#utility.yul\":3380:3381   */\n      dup2\n        /* \"#utility.yul\":3377:3390   */\n      lt\n        /* \"#utility.yul\":3369:3482   */\n      iszero\n      tag_198\n      jumpi\n        /* \"#utility.yul\":3468:3469   */\n      dup1\n        /* \"#utility.yul\":3463:3466   */\n      dup3\n        /* \"#utility.yul\":3459:3470   */\n      add\n        /* \"#utility.yul\":3453:3471   */\n      mload\n        /* \"#utility.yul\":3449:3450   */\n      dup2\n        /* \"#utility.yul\":3444:3447   */\n      dup5\n        /* \"#utility.yul\":3440:3451   */\n      add\n        /* \"#utility.yul\":3433:3472   */\n      mstore\n        /* \"#utility.yul\":3405:3407   */\n      0x20\n        /* \"#utility.yul\":3402:3403   */\n      dup2\n        /* \"#utility.yul\":3398:3408   */\n      add\n        /* \"#utility.yul\":3393:3408   */\n      swap1\n      pop\n        /* \"#utility.yul\":3369:3482   */\n      jump(tag_196)\n    tag_198:\n        /* \"#utility.yul\":3516:3517   */\n      0x00\n        /* \"#utility.yul\":3507:3513   */\n      dup5\n        /* \"#utility.yul\":3502:3505   */\n      dup5\n        /* \"#utility.yul\":3498:3514   */\n      add\n        /* \"#utility.yul\":3491:3518   */\n      mstore\n        /* \"#utility.yul\":3340:3524   */\n      pop\n        /* \"#utility.yul\":3278:3524   */\n      pop\n      pop\n      pop\n      jump\t// out\n        /* \"#utility.yul\":3530:3632   */\n    tag_119:\n        /* \"#utility.yul\":3571:3577   */\n      0x00\n        /* \"#utility.yul\":3622:3624   */\n      0x1f\n        /* \"#utility.yul\":3618:3625   */\n      not\n        /* \"#utility.yul\":3613:3615   */\n      0x1f\n        /* \"#utility.yul\":3606:3611   */\n      dup4\n        /* \"#utility.yul\":3602:3616   */\n      add\n        /* \"#utility.yul\":3598:3626   */\n      and\n        /* \"#utility.yul\":3588:3626   */\n      swap1\n      pop\n        /* \"#utility.yul\":3530:3632   */\n      swap2\n      swap1\n      pop\n      jump\t// out\n        /* \"#utility.yul\":3638:4015   */\n    tag_120:\n        /* \"#utility.yul\":3726:3729   */\n      0x00\n        /* \"#utility.yul\":3754:3793   */\n      tag_201\n        /* \"#utility.yul\":3787:3792   */\n      dup3\n        /* \"#utility.yul\":3754:3793   */\n      tag_116\n      jump\t// in\n    tag_201:\n        /* \"#utility.yul\":3809:3880   */\n      tag_202\n        /* \"#utility.yul\":3873:3879   */\n      dup2\n        /* \"#utility.yul\":3868:3871   */\n      dup6\n        /* \"#utility.yul\":3809:3880   */\n      tag_117\n      jump\t// in\n    tag_202:\n        /* \"#utility.yul\":3802:3880   */\n      swap4\n      pop\n        /* \"#utility.yul\":3889:3954   */\n      tag_203\n        /* \"#utility.yul\":3947:3953   */\n      dup2\n        /* \"#utility.yul\":3942:3945   */\n      dup6\n        /* \"#utility.yul\":3935:3939   */\n      0x20\n        /* \"#utility.yul\":3928:3933   */\n      dup7\n        /* \"#utility.yul\":3924:3940   */\n      add\n        /* \"#utility.yul\":3889:3954   */\n      tag_118\n      jump\t// in\n    tag_203:\n        /* \"#utility.yul\":3979:4008   */\n      tag_204\n        /* \"#utility.yul\":4001:4007   */\n      dup2\n        /* \"#utility.yul\":3979:4008   */\n      tag_119\n      jump\t// in\n    tag_204:\n        /* \"#utility.yul\":3974:3977   */\n      dup5\n        /* \"#utility.yul\":3970:4009   */\n      add\n        /* \"#utility.yul\":3963:4009   */\n      swap2\n      pop\n        /* \"#utility.yul\":3730:4015   */\n      pop\n        /* \"#utility.yul\":3638:4015   */\n      swap3\n      swap2\n      pop\n      pop\n      jump\t// out\n        /* \"#utility.yul\":4021:4125   */\n    tag_121:\n        /* \"#utility.yul\":4066:4073   */\n      0x00\n        /* \"#utility.yul\":4095:4119   */\n      tag_206\n        /* \"#utility.yul\":4113:4118   */\n      dup3\n        /* \"#utility.yul\":4095:4119   */\n      tag_108\n      jump\t// in\n    tag_206:\n        /* \"#utility.yul\":4084:4119   */\n      swap1\n      pop\n        /* \"#utility.yul\":4021:4125   */\n      swap2\n      swap1\n      pop\n      jump\t// out\n        /* \"#utility.yul\":4131:4273   */\n    tag_122:\n        /* \"#utility.yul\":4234:4266   */\n      tag_208\n        /* \"#utility.yul\":4260:4265   */\n      dup2\n        /* \"#utility.yul\":4234:4266   */\n      tag_121\n      jump\t// in\n    tag_208:\n        /* \"#utility.yul\":4229:4232   */\n      dup3\n        /* \"#utility.yul\":4222:4267   */\n      mstore\n        /* \"#utility.yul\":4131:4273   */\n      pop\n      pop\n      jump\t// out\n        /* \"#utility.yul\":4279:5054   */\n    tag_39:\n        /* \"#utility.yul\":4514:4518   */\n      0x00\n        /* \"#utility.yul\":4552:4555   */\n      0xa0\n        /* \"#utility.yul\":4541:4550   */\n      dup3\n        /* \"#utility.yul\":4537:4556   */\n      add\n        /* \"#utility.yul\":4529:4556   */\n      swap1\n      pop\n        /* \"#utility.yul\":4602:4611   */\n      dup2\n        /* \"#utility.yul\":4596:4600   */\n      dup2\n        /* \"#utility.yul\":4592:4612   */\n      sub\n        /* \"#utility.yul\":4588:4589   */\n      0x00\n        /* \"#utility.yul\":4577:4586   */\n      dup4\n        /* \"#utility.yul\":4573:4590   */\n      add\n        /* \"#utility.yul\":4566:4613   */\n      mstore\n        /* \"#utility.yul\":4630:4708   */\n      tag_210\n        /* \"#utility.yul\":4703:4707   */\n      dup2\n        /* \"#utility.yul\":4694:4700   */\n      dup9\n        /* \"#utility.yul\":4630:4708   */\n      tag_120\n      jump\t// in\n    tag_210:\n        /* \"#utility.yul\":4622:4708   */\n      swap1\n      pop\n        /* \"#utility.yul\":4718:4790   */\n      tag_211\n        /* \"#utility.yul\":4786:4788   */\n      0x20\n        /* \"#utility.yul\":4775:4784   */\n      dup4\n        /* \"#utility.yul\":4771:4789   */\n      add\n        /* \"#utility.yul\":4762:4768   */\n      dup8\n        /* \"#utility.yul\":4718:4790   */\n      tag_115\n      jump\t// in\n    tag_211:\n        /* \"#utility.yul\":4800:4888   */\n      tag_212\n        /* \"#utility.yul\":4884:4886   */\n      0x40\n        /* \"#utility.yul\":4873:4882   */\n      dup4\n        /* \"#utility.yul\":4869:4887   */\n      add\n        /* \"#utility.yul\":4860:4866   */\n      dup7\n        /* \"#utility.yul\":4800:4888   */\n      tag_122\n      jump\t// in\n    tag_212:\n        /* \"#utility.yul\":4898:4964   */\n      tag_213\n        /* \"#utility.yul\":4960:4962   */\n      0x60\n        /* \"#utility.yul\":4949:4958   */\n      dup4\n        /* \"#utility.yul\":4945:4963   */\n      add\n        /* \"#utility.yul\":4936:4942   */\n      dup6\n        /* \"#utility.yul\":4898:4964   */\n      tag_113\n      jump\t// in\n    tag_213:\n        /* \"#utility.yul\":4974:5047   */\n      tag_214\n        /* \"#utility.yul\":5042:5045   */\n      0x80\n        /* \"#utility.yul\":5031:5040   */\n      dup4\n        /* \"#utility.yul\":5027:5046   */\n      add\n        /* \"#utility.yul\":5018:5024   */\n      dup5\n        /* \"#utility.yul\":4974:5047   */\n      tag_115\n      jump\t// in\n    tag_214:\n        /* \"#utility.yul\":4279:5054   */\n      swap7\n      swap6\n      pop\n      pop\n      pop\n      pop\n      pop\n      pop\n      jump\t// out\n        /* \"#utility.yul\":5060:5177   */\n    tag_123:\n        /* \"#utility.yul\":5169:5170   */\n      0x00\n        /* \"#utility.yul\":5166:5167   */\n      dup1\n        /* \"#utility.yul\":5159:5171   */\n      revert\n        /* \"#utility.yul\":5183:5300   */\n    tag_124:\n        /* \"#utility.yul\":5292:5293   */\n      0x00\n        /* \"#utility.yul\":5289:5290   */\n      dup1\n        /* \"#utility.yul\":5282:5294   */\n      revert\n        /* \"#utility.yul\":5306:5486   */\n    tag_125:\n        /* \"#utility.yul\":5354:5431   */\n      0x4e487b7100000000000000000000000000000000000000000000000000000000\n        /* \"#utility.yul\":5351:5352   */\n      0x00\n        /* \"#utility.yul\":5344:5432   */\n      mstore\n        /* \"#utility.yul\":5451:5455   */\n      0x41\n        /* \"#utility.yul\":5448:5449   */\n      0x04\n        /* \"#utility.yul\":5441:5456   */\n      mstore\n        /* \"#utility.yul\":5475:5479   */\n      0x24\n        /* \"#utility.yul\":5472:5473   */\n      0x00\n        /* \"#utility.yul\":5465:5480   */\n      revert\n        /* \"#utility.yul\":5492:5773   */\n    tag_126:\n        /* \"#utility.yul\":5575:5602   */\n      tag_219\n        /* \"#utility.yul\":5597:5601   */\n      dup3\n        /* \"#utility.yul\":5575:5602   */\n      tag_119\n      jump\t// in\n    tag_219:\n        /* \"#utility.yul\":5567:5573   */\n      dup2\n        /* \"#utility.yul\":5563:5603   */\n      add\n        /* \"#utility.yul\":5705:5711   */\n      dup2\n        /* \"#utility.yul\":5693:5703   */\n      dup2\n        /* \"#utility.yul\":5690:5712   */\n      lt\n        /* \"#utility.yul\":5669:5687   */\n      0xffffffffffffffff\n        /* \"#utility.yul\":5657:5667   */\n      dup3\n        /* \"#utility.yul\":5654:5688   */\n      gt\n        /* \"#utility.yul\":5651:5713   */\n      or\n        /* \"#utility.yul\":5648:5736   */\n      iszero\n      tag_220\n      jumpi\n        /* \"#utility.yul\":5716:5734   */\n      tag_221\n      tag_125\n      jump\t// in\n    tag_221:\n        /* \"#utility.yul\":5648:5736   */\n    tag_220:\n        /* \"#utility.yul\":5756:5766   */\n      dup1\n        /* \"#utility.yul\":5752:5754   */\n      0x40\n        /* \"#utility.yul\":5745:5767   */\n      mstore\n        /* \"#utility.yul\":5535:5773   */\n      pop\n        /* \"#utility.yul\":5492:5773   */\n      pop\n      pop\n      jump\t// out\n        /* \"#utility.yul\":5779:5908   */\n    tag_127:\n        /* \"#utility.yul\":5813:5819   */\n      0x00\n        /* \"#utility.yul\":5840:5860   */\n      tag_223\n      tag_102\n      jump\t// in\n    tag_223:\n        /* \"#utility.yul\":5830:5860   */\n      swap1\n      pop\n        /* \"#utility.yul\":5869:5902   */\n      tag_224\n        /* \"#utility.yul\":5897:5901   */\n      dup3\n        /* \"#utility.yul\":5889:5895   */\n      dup3\n        /* \"#utility.yul\":5869:5902   */\n      tag_126\n      jump\t// in\n    tag_224:\n        /* \"#utility.yul\":5779:5908   */\n      swap2\n      swap1\n      pop\n      jump\t// out\n        /* \"#utility.yul\":5914:6222   */\n    tag_128:\n        /* \"#utility.yul\":5976:5980   */\n      0x00\n        /* \"#utility.yul\":6066:6084   */\n      0xffffffffffffffff\n        /* \"#utility.yul\":6058:6064   */\n      dup3\n        /* \"#utility.yul\":6055:6085   */\n      gt\n        /* \"#utility.yul\":6052:6108   */\n      iszero\n      tag_226\n      jumpi\n        /* \"#utility.yul\":6088:6106   */\n      tag_227\n      tag_125\n      jump\t// in\n    tag_227:\n        /* \"#utility.yul\":6052:6108   */\n    tag_226:\n        /* \"#utility.yul\":6126:6155   */\n      tag_228\n        /* \"#utility.yul\":6148:6154   */\n      dup3\n        /* \"#utility.yul\":6126:6155   */\n      tag_119\n      jump\t// in\n    tag_228:\n        /* \"#utility.yul\":6118:6155   */\n      swap1\n      pop\n        /* \"#utility.yul\":6210:6214   */\n      0x20\n        /* \"#utility.yul\":6204:6208   */\n      dup2\n        /* \"#utility.yul\":6200:6215   */\n      add\n        /* \"#utility.yul\":6192:6215   */\n      swap1\n      pop\n        /* \"#utility.yul\":5914:6222   */\n      swap2\n      swap1\n      pop\n      jump\t// out\n        /* \"#utility.yul\":6228:6374   */\n    tag_129:\n        /* \"#utility.yul\":6325:6331   */\n      dup3\n        /* \"#utility.yul\":6320:6323   */\n      dup2\n        /* \"#utility.yul\":6315:6318   */\n      dup4\n        /* \"#utility.yul\":6302:6332   */\n      calldatacopy\n        /* \"#utility.yul\":6366:6367   */\n      0x00\n        /* \"#utility.yul\":6357:6363   */\n      dup4\n        /* \"#utility.yul\":6352:6355   */\n      dup4\n        /* \"#utility.yul\":6348:6364   */\n      add\n        /* \"#utility.yul\":6341:6368   */\n      mstore\n        /* \"#utility.yul\":6228:6374   */\n      pop\n      pop\n      pop\n      jump\t// out\n        /* \"#utility.yul\":6380:6805   */\n    tag_130:\n        /* \"#utility.yul\":6458:6463   */\n      0x00\n        /* \"#utility.yul\":6483:6549   */\n      tag_231\n        /* \"#utility.yul\":6499:6548   */\n      tag_232\n        /* \"#utility.yul\":6541:6547   */\n      dup5\n        /* \"#utility.yul\":6499:6548   */\n      tag_128\n      jump\t// in\n    tag_232:\n        /* \"#utility.yul\":6483:6549   */\n      tag_127\n      jump\t// in\n    tag_231:\n        /* \"#utility.yul\":6474:6549   */\n      swap1\n      pop\n        /* \"#utility.yul\":6572:6578   */\n      dup3\n        /* \"#utility.yul\":6565:6570   */\n      dup2\n        /* \"#utility.yul\":6558:6579   */\n      mstore\n        /* \"#utility.yul\":6610:6614   */\n      0x20\n        /* \"#utility.yul\":6603:6608   */\n      dup2\n        /* \"#utility.yul\":6599:6615   */\n      add\n        /* \"#utility.yul\":6648:6651   */\n      dup5\n        /* \"#utility.yul\":6639:6645   */\n      dup5\n        /* \"#utility.yul\":6634:6637   */\n      dup5\n        /* \"#utility.yul\":6630:6646   */\n      add\n        /* \"#utility.yul\":6627:6652   */\n      gt\n        /* \"#utility.yul\":6624:6736   */\n      iszero\n      tag_233\n      jumpi\n        /* \"#utility.yul\":6655:6734   */\n      tag_234\n      tag_124\n      jump\t// in\n    tag_234:\n        /* \"#utility.yul\":6624:6736   */\n    tag_233:\n        /* \"#utility.yul\":6745:6799   */\n      tag_235\n        /* \"#utility.yul\":6792:6798   */\n      dup5\n        /* \"#utility.yul\":6787:6790   */\n      dup3\n        /* \"#utility.yul\":6782:6785   */\n      dup6\n        /* \"#utility.yul\":6745:6799   */\n      tag_129\n      jump\t// in\n    tag_235:\n        /* \"#utility.yul\":6464:6805   */\n      pop\n        /* \"#utility.yul\":6380:6805   */\n      swap4\n      swap3\n      pop\n      pop\n      pop\n      jump\t// out\n        /* \"#utility.yul\":6825:7165   */\n    tag_131:\n        /* \"#utility.yul\":6881:6886   */\n      0x00\n        /* \"#utility.yul\":6930:6933   */\n      dup3\n        /* \"#utility.yul\":6923:6927   */\n      0x1f\n        /* \"#utility.yul\":6915:6921   */\n      dup4\n        /* \"#utility.yul\":6911:6928   */\n      add\n        /* \"#utility.yul\":6907:6934   */\n      slt\n        /* \"#utility.yul\":6897:7019   */\n      tag_237\n      jumpi\n        /* \"#utility.yul\":6938:7017   */\n      tag_238\n      tag_123\n      jump\t// in\n    tag_238:\n        /* \"#utility.yul\":6897:7019   */\n    tag_237:\n        /* \"#utility.yul\":7055:7061   */\n      dup2\n        /* \"#utility.yul\":7042:7062   */\n      calldataload\n        /* \"#utility.yul\":7080:7159   */\n      tag_239\n        /* \"#utility.yul\":7155:7158   */\n      dup5\n        /* \"#utility.yul\":7147:7153   */\n      dup3\n        /* \"#utility.yul\":7140:7144   */\n      0x20\n        /* \"#utility.yul\":7132:7138   */\n      dup7\n        /* \"#utility.yul\":7128:7145   */\n      add\n        /* \"#utility.yul\":7080:7159   */\n      tag_130\n      jump\t// in\n    tag_239:\n        /* \"#utility.yul\":7071:7159   */\n      swap2\n      pop\n        /* \"#utility.yul\":6887:7165   */\n      pop\n        /* \"#utility.yul\":6825:7165   */\n      swap3\n      swap2\n      pop\n      pop\n      jump\t// out\n        /* \"#utility.yul\":7171:7309   */\n    tag_132:\n        /* \"#utility.yul\":7252:7284   */\n      tag_241\n        /* \"#utility.yul\":7278:7283   */\n      dup2\n        /* \"#utility.yul\":7252:7284   */\n      tag_121\n      jump\t// in\n    tag_241:\n        /* \"#utility.yul\":7245:7250   */\n      dup2\n        /* \"#utility.yul\":7242:7285   */\n      eq\n        /* \"#utility.yul\":7232:7303   */\n      tag_242\n      jumpi\n        /* \"#utility.yul\":7299:7300   */\n      0x00\n        /* \"#utility.yul\":7296:7297   */\n      dup1\n        /* \"#utility.yul\":7289:7301   */\n      revert\n        /* \"#utility.yul\":7232:7303   */\n    tag_242:\n        /* \"#utility.yul\":7171:7309   */\n      pop\n      jump\t// out\n        /* \"#utility.yul\":7315:7470   */\n    tag_133:\n        /* \"#utility.yul\":7369:7374   */\n      0x00\n        /* \"#utility.yul\":7407:7413   */\n      dup2\n        /* \"#utility.yul\":7394:7414   */\n      calldataload\n        /* \"#utility.yul\":7385:7414   */\n      swap1\n      pop\n        /* \"#utility.yul\":7423:7464   */\n      tag_244\n        /* \"#utility.yul\":7458:7463   */\n      dup2\n        /* \"#utility.yul\":7423:7464   */\n      tag_132\n      jump\t// in\n    tag_244:\n        /* \"#utility.yul\":7315:7470   */\n      swap3\n      swap2\n      pop\n      pop\n      jump\t// out\n        /* \"#utility.yul\":7476:8291   */\n    tag_43:\n        /* \"#utility.yul\":7571:7577   */\n      0x00\n        /* \"#utility.yul\":7579:7585   */\n      dup1\n        /* \"#utility.yul\":7587:7593   */\n      0x00\n        /* \"#utility.yul\":7636:7638   */\n      0x60\n        /* \"#utility.yul\":7624:7633   */\n      dup5\n        /* \"#utility.yul\":7615:7622   */\n      dup7\n        /* \"#utility.yul\":7611:7634   */\n      sub\n        /* \"#utility.yul\":7607:7639   */\n      slt\n        /* \"#utility.yul\":7604:7723   */\n      iszero\n      tag_246\n      jumpi\n        /* \"#utility.yul\":7642:7721   */\n      tag_247\n      tag_103\n      jump\t// in\n    tag_247:\n        /* \"#utility.yul\":7604:7723   */\n    tag_246:\n        /* \"#utility.yul\":7790:7791   */\n      0x00\n        /* \"#utility.yul\":7779:7788   */\n      dup5\n        /* \"#utility.yul\":7775:7792   */\n      add\n        /* \"#utility.yul\":7762:7793   */\n      calldataload\n        /* \"#utility.yul\":7820:7838   */\n      0xffffffffffffffff\n        /* \"#utility.yul\":7812:7818   */\n      dup2\n        /* \"#utility.yul\":7809:7839   */\n      gt\n        /* \"#utility.yul\":7806:7923   */\n      iszero\n      tag_248\n      jumpi\n        /* \"#utility.yul\":7842:7921   */\n      tag_249\n      tag_104\n      jump\t// in\n    tag_249:\n        /* \"#utility.yul\":7806:7923   */\n    tag_248:\n        /* \"#utility.yul\":7947:8010   */\n      tag_250\n        /* \"#utility.yul\":8002:8009   */\n      dup7\n        /* \"#utility.yul\":7993:7999   */\n      dup3\n        /* \"#utility.yul\":7982:7991   */\n      dup8\n        /* \"#utility.yul\":7978:8000   */\n      add\n        /* \"#utility.yul\":7947:8010   */\n      tag_131\n      jump\t// in\n    tag_250:\n        /* \"#utility.yul\":7937:8010   */\n      swap4\n      pop\n        /* \"#utility.yul\":7733:8020   */\n      pop\n        /* \"#utility.yul\":8059:8061   */\n      0x20\n        /* \"#utility.yul\":8085:8138   */\n      tag_251\n        /* \"#utility.yul\":8130:8137   */\n      dup7\n        /* \"#utility.yul\":8121:8127   */\n      dup3\n        /* \"#utility.yul\":8110:8119   */\n      dup8\n        /* \"#utility.yul\":8106:8128   */\n      add\n        /* \"#utility.yul\":8085:8138   */\n      tag_107\n      jump\t// in\n    tag_251:\n        /* \"#utility.yul\":8075:8138   */\n      swap3\n      pop\n        /* \"#utility.yul\":8030:8148   */\n      pop\n        /* \"#utility.yul\":8187:8189   */\n      0x40\n        /* \"#utility.yul\":8213:8274   */\n      tag_252\n        /* \"#utility.yul\":8266:8273   */\n      dup7\n        /* \"#utility.yul\":8257:8263   */\n      dup3\n        /* \"#utility.yul\":8246:8255   */\n      dup8\n        /* \"#utility.yul\":8242:8264   */\n      add\n        /* \"#utility.yul\":8213:8274   */\n      tag_133\n      jump\t// in\n    tag_252:\n        /* \"#utility.yul\":8203:8274   */\n      swap2\n      pop\n        /* \"#utility.yul\":8158:8284   */\n      pop\n        /* \"#utility.yul\":7476:8291   */\n      swap3\n      pop\n      swap3\n      pop\n      swap3\n      jump\t// out\n        /* \"#utility.yul\":8297:8771   */\n    tag_52:\n        /* \"#utility.yul\":8365:8371   */\n      0x00\n        /* \"#utility.yul\":8373:8379   */\n      dup1\n        /* \"#utility.yul\":8422:8424   */\n      0x40\n        /* \"#utility.yul\":8410:8419   */\n      dup4\n        /* \"#utility.yul\":8401:8408   */\n      dup6\n        /* \"#utility.yul\":8397:8420   */\n      sub\n        /* \"#utility.yul\":8393:8425   */\n      slt\n        /* \"#utility.yul\":8390:8509   */\n      iszero\n      tag_254\n      jumpi\n        /* \"#utility.yul\":8428:8507   */\n      tag_255\n      tag_103\n      jump\t// in\n    tag_255:\n        /* \"#utility.yul\":8390:8509   */\n    tag_254:\n        /* \"#utility.yul\":8548:8549   */\n      0x00\n        /* \"#utility.yul\":8573:8626   */\n      tag_256\n        /* \"#utility.yul\":8618:8625   */\n      dup6\n        /* \"#utility.yul\":8609:8615   */\n      dup3\n        /* \"#utility.yul\":8598:8607   */\n      dup7\n        /* \"#utility.yul\":8594:8616   */\n      add\n        /* \"#utility.yul\":8573:8626   */\n      tag_107\n      jump\t// in\n    tag_256:\n        /* \"#utility.yul\":8563:8626   */\n      swap3\n      pop\n        /* \"#utility.yul\":8519:8636   */\n      pop\n        /* \"#utility.yul\":8675:8677   */\n      0x20\n        /* \"#utility.yul\":8701:8754   */\n      tag_257\n        /* \"#utility.yul\":8746:8753   */\n      dup6\n        /* \"#utility.yul\":8737:8743   */\n      dup3\n        /* \"#utility.yul\":8726:8735   */\n      dup7\n        /* \"#utility.yul\":8722:8744   */\n      add\n        /* \"#utility.yul\":8701:8754   */\n      tag_111\n      jump\t// in\n    tag_257:\n        /* \"#utility.yul\":8691:8754   */\n      swap2\n      pop\n        /* \"#utility.yul\":8646:8764   */\n      pop\n        /* \"#utility.yul\":8297:8771   */\n      swap3\n      pop\n      swap3\n      swap1\n      pop\n      jump\t// out\n        /* \"#utility.yul\":8777:8957   */\n    tag_66:\n        /* \"#utility.yul\":8825:8902   */\n      0x4e487b7100000000000000000000000000000000000000000000000000000000\n        /* \"#utility.yul\":8822:8823   */\n      0x00\n        /* \"#utility.yul\":8815:8903   */\n      mstore\n        /* \"#utility.yul\":8922:8926   */\n      0x32\n        /* \"#utility.yul\":8919:8920   */\n      0x04\n        /* \"#utility.yul\":8912:8927   */\n      mstore\n        /* \"#utility.yul\":8946:8950   */\n      0x24\n        /* \"#utility.yul\":8943:8944   */\n      0x00\n        /* \"#utility.yul\":8936:8951   */\n      revert\n        /* \"#utility.yul\":8963:9143   */\n    tag_134:\n        /* \"#utility.yul\":9011:9088   */\n      0x4e487b7100000000000000000000000000000000000000000000000000000000\n        /* \"#utility.yul\":9008:9009   */\n      0x00\n        /* \"#utility.yul\":9001:9089   */\n      mstore\n        /* \"#utility.yul\":9108:9112   */\n      0x12\n        /* \"#utility.yul\":9105:9106   */\n      0x04\n        /* \"#utility.yul\":9098:9113   */\n      mstore\n        /* \"#utility.yul\":9132:9136   */\n      0x24\n        /* \"#utility.yul\":9129:9130   */\n      0x00\n        /* \"#utility.yul\":9122:9137   */\n      revert\n        /* \"#utility.yul\":9149:9329   */\n    tag_135:\n        /* \"#utility.yul\":9197:9274   */\n      0x4e487b7100000000000000000000000000000000000000000000000000000000\n        /* \"#utility.yul\":9194:9195   */\n      0x00\n        /* \"#utility.yul\":9187:9275   */\n      mstore\n        /* \"#utility.yul\":9294:9298   */\n      0x11\n        /* \"#utility.yul\":9291:9292   */\n      0x04\n        /* \"#utility.yul\":9284:9299   */\n      mstore\n        /* \"#utility.yul\":9318:9322   */\n      0x24\n        /* \"#utility.yul\":9315:9316   */\n      0x00\n        /* \"#utility.yul\":9308:9323   */\n      revert\n        /* \"#utility.yul\":9335:9520   */\n    tag_69:\n        /* \"#utility.yul\":9375:9376   */\n      0x00\n        /* \"#utility.yul\":9392:9412   */\n      tag_262\n        /* \"#utility.yul\":9410:9411   */\n      dup3\n        /* \"#utility.yul\":9392:9412   */\n      tag_105\n      jump\t// in\n    tag_262:\n        /* \"#utility.yul\":9387:9412   */\n      swap2\n      pop\n        /* \"#utility.yul\":9426:9446   */\n      tag_263\n        /* \"#utility.yul\":9444:9445   */\n      dup4\n        /* \"#utility.yul\":9426:9446   */\n      tag_105\n      jump\t// in\n    tag_263:\n        /* \"#utility.yul\":9421:9446   */\n      swap3\n      pop\n        /* \"#utility.yul\":9465:9466   */\n      dup3\n        /* \"#utility.yul\":9455:9490   */\n      tag_264\n      jumpi\n        /* \"#utility.yul\":9470:9488   */\n      tag_265\n      tag_134\n      jump\t// in\n    tag_265:\n        /* \"#utility.yul\":9455:9490   */\n    tag_264:\n        /* \"#utility.yul\":9512:9513   */\n      dup3\n        /* \"#utility.yul\":9509:9510   */\n      dup3\n        /* \"#utility.yul\":9505:9514   */\n      div\n        /* \"#utility.yul\":9500:9514   */\n      swap1\n      pop\n        /* \"#utility.yul\":9335:9520   */\n      swap3\n      swap2\n      pop\n      pop\n      jump\t// out\n        /* \"#utility.yul\":9526:9766   */\n    tag_136:\n        /* \"#utility.yul\":9666:9700   */\n      0x54686572652068617320746f206265206d6f7265206174206c65617374203530\n        /* \"#utility.yul\":9662:9663   */\n      0x00\n        /* \"#utility.yul\":9654:9660   */\n      dup3\n        /* \"#utility.yul\":9650:9664   */\n      add\n        /* \"#utility.yul\":9643:9701   */\n      mstore\n        /* \"#utility.yul\":9735:9758   */\n      0x252070657263656e74206f6620617070726f7665730000000000000000000000\n        /* \"#utility.yul\":9730:9732   */\n      0x20\n        /* \"#utility.yul\":9722:9728   */\n      dup3\n        /* \"#utility.yul\":9718:9733   */\n      add\n        /* \"#utility.yul\":9711:9759   */\n      mstore\n        /* \"#utility.yul\":9526:9766   */\n      pop\n      jump\t// out\n        /* \"#utility.yul\":9772:10138   */\n    tag_137:\n        /* \"#utility.yul\":9914:9917   */\n      0x00\n        /* \"#utility.yul\":9935:10002   */\n      tag_268\n        /* \"#utility.yul\":9999:10001   */\n      0x35\n        /* \"#utility.yul\":9994:9997   */\n      dup4\n        /* \"#utility.yul\":9935:10002   */\n      tag_117\n      jump\t// in\n    tag_268:\n        /* \"#utility.yul\":9928:10002   */\n      swap2\n      pop\n        /* \"#utility.yul\":10011:10104   */\n      tag_269\n        /* \"#utility.yul\":10100:10103   */\n      dup3\n        /* \"#utility.yul\":10011:10104   */\n      tag_136\n      jump\t// in\n    tag_269:\n        /* \"#utility.yul\":10129:10131   */\n      0x40\n        /* \"#utility.yul\":10124:10127   */\n      dup3\n        /* \"#utility.yul\":10120:10132   */\n      add\n        /* \"#utility.yul\":10113:10132   */\n      swap1\n      pop\n        /* \"#utility.yul\":9772:10138   */\n      swap2\n      swap1\n      pop\n      jump\t// out\n        /* \"#utility.yul\":10144:10563   */\n    tag_72:\n        /* \"#utility.yul\":10310:10314   */\n      0x00\n        /* \"#utility.yul\":10348:10350   */\n      0x20\n        /* \"#utility.yul\":10337:10346   */\n      dup3\n        /* \"#utility.yul\":10333:10351   */\n      add\n        /* \"#utility.yul\":10325:10351   */\n      swap1\n      pop\n        /* \"#utility.yul\":10397:10406   */\n      dup2\n        /* \"#utility.yul\":10391:10395   */\n      dup2\n        /* \"#utility.yul\":10387:10407   */\n      sub\n        /* \"#utility.yul\":10383:10384   */\n      0x00\n        /* \"#utility.yul\":10372:10381   */\n      dup4\n        /* \"#utility.yul\":10368:10385   */\n      add\n        /* \"#utility.yul\":10361:10408   */\n      mstore\n        /* \"#utility.yul\":10425:10556   */\n      tag_271\n        /* \"#utility.yul\":10551:10555   */\n      dup2\n        /* \"#utility.yul\":10425:10556   */\n      tag_137\n      jump\t// in\n    tag_271:\n        /* \"#utility.yul\":10417:10556   */\n      swap1\n      pop\n        /* \"#utility.yul\":10144:10563   */\n      swap2\n      swap1\n      pop\n      jump\t// out\n        /* \"#utility.yul\":10569:10749   */\n    tag_138:\n        /* \"#utility.yul\":10617:10694   */\n      0x4e487b7100000000000000000000000000000000000000000000000000000000\n        /* \"#utility.yul\":10614:10615   */\n      0x00\n        /* \"#utility.yul\":10607:10695   */\n      mstore\n        /* \"#utility.yul\":10714:10718   */\n      0x22\n        /* \"#utility.yul\":10711:10712   */\n      0x04\n        /* \"#utility.yul\":10704:10719   */\n      mstore\n        /* \"#utility.yul\":10738:10742   */\n      0x24\n        /* \"#utility.yul\":10735:10736   */\n      0x00\n        /* \"#utility.yul\":10728:10743   */\n      revert\n        /* \"#utility.yul\":10755:11075   */\n    tag_79:\n        /* \"#utility.yul\":10799:10805   */\n      0x00\n        /* \"#utility.yul\":10836:10837   */\n      0x02\n        /* \"#utility.yul\":10830:10834   */\n      dup3\n        /* \"#utility.yul\":10826:10838   */\n      div\n        /* \"#utility.yul\":10816:10838   */\n      swap1\n      pop\n        /* \"#utility.yul\":10883:10884   */\n      0x01\n        /* \"#utility.yul\":10877:10881   */\n      dup3\n        /* \"#utility.yul\":10873:10885   */\n      and\n        /* \"#utility.yul\":10904:10922   */\n      dup1\n        /* \"#utility.yul\":10894:10975   */\n      tag_274\n      jumpi\n        /* \"#utility.yul\":10960:10964   */\n      0x7f\n        /* \"#utility.yul\":10952:10958   */\n      dup3\n        /* \"#utility.yul\":10948:10965   */\n      and\n        /* \"#utility.yul\":10938:10965   */\n      swap2\n      pop\n        /* \"#utility.yul\":10894:10975   */\n    tag_274:\n        /* \"#utility.yul\":11022:11024   */\n      0x20\n        /* \"#utility.yul\":11014:11020   */\n      dup3\n        /* \"#utility.yul\":11011:11025   */\n      lt\n        /* \"#utility.yul\":10991:11009   */\n      dup2\n        /* \"#utility.yul\":10988:11026   */\n      sub\n        /* \"#utility.yul\":10985:11069   */\n      tag_275\n      jumpi\n        /* \"#utility.yul\":11041:11059   */\n      tag_276\n      tag_138\n      jump\t// in\n    tag_276:\n        /* \"#utility.yul\":10985:11069   */\n    tag_275:\n        /* \"#utility.yul\":10806:11075   */\n      pop\n        /* \"#utility.yul\":10755:11075   */\n      swap2\n      swap1\n      pop\n      jump\t// out\n        /* \"#utility.yul\":11081:11222   */\n    tag_139:\n        /* \"#utility.yul\":11130:11134   */\n      0x00\n        /* \"#utility.yul\":11153:11156   */\n      dup2\n        /* \"#utility.yul\":11145:11156   */\n      swap1\n      pop\n        /* \"#utility.yul\":11176:11179   */\n      dup2\n        /* \"#utility.yul\":11173:11174   */\n      0x00\n        /* \"#utility.yul\":11166:11180   */\n      mstore\n        /* \"#utility.yul\":11210:11214   */\n      0x20\n        /* \"#utility.yul\":11207:11208   */\n      0x00\n        /* \"#utility.yul\":11197:11215   */\n      keccak256\n        /* \"#utility.yul\":11189:11215   */\n      swap1\n      pop\n        /* \"#utility.yul\":11081:11222   */\n      swap2\n      swap1\n      pop\n      jump\t// out\n        /* \"#utility.yul\":11228:11321   */\n    tag_140:\n        /* \"#utility.yul\":11265:11271   */\n      0x00\n        /* \"#utility.yul\":11312:11314   */\n      0x20\n        /* \"#utility.yul\":11307:11309   */\n      0x1f\n        /* \"#utility.yul\":11300:11305   */\n      dup4\n        /* \"#utility.yul\":11296:11310   */\n      add\n        /* \"#utility.yul\":11292:11315   */\n      div\n        /* \"#utility.yul\":11282:11315   */\n      swap1\n      pop\n        /* \"#utility.yul\":11228:11321   */\n      swap2\n      swap1\n      pop\n      jump\t// out\n        /* \"#utility.yul\":11327:11434   */\n    tag_141:\n        /* \"#utility.yul\":11371:11379   */\n      0x00\n        /* \"#utility.yul\":11421:11426   */\n      dup3\n        /* \"#utility.yul\":11415:11419   */\n      dup3\n        /* \"#utility.yul\":11411:11427   */\n      shl\n        /* \"#utility.yul\":11390:11427   */\n      swap1\n      pop\n        /* \"#utility.yul\":11327:11434   */\n      swap3\n      swap2\n      pop\n      pop\n      jump\t// out\n        /* \"#utility.yul\":11440:11833   */\n    tag_142:\n        /* \"#utility.yul\":11509:11515   */\n      0x00\n        /* \"#utility.yul\":11559:11560   */\n      0x08\n        /* \"#utility.yul\":11547:11557   */\n      dup4\n        /* \"#utility.yul\":11543:11561   */\n      mul\n        /* \"#utility.yul\":11582:11679   */\n      tag_281\n        /* \"#utility.yul\":11612:11678   */\n      0xffffffffffffffffffffffffffffffffffffffffffffffffffffffffffffffff\n        /* \"#utility.yul\":11601:11610   */\n      dup3\n        /* \"#utility.yul\":11582:11679   */\n      tag_141\n      jump\t// in\n    tag_281:\n        /* \"#utility.yul\":11700:11739   */\n      tag_282\n        /* \"#utility.yul\":11730:11738   */\n      dup7\n        /* \"#utility.yul\":11719:11728   */\n      dup4\n        /* \"#utility.yul\":11700:11739   */\n      tag_141\n      jump\t// in\n    tag_282:\n        /* \"#utility.yul\":11688:11739   */\n      swap6\n      pop\n        /* \"#utility.yul\":11772:11776   */\n      dup1\n        /* \"#utility.yul\":11768:11777   */\n      not\n        /* \"#utility.yul\":11761:11766   */\n      dup5\n        /* \"#utility.yul\":11757:11778   */\n      and\n        /* \"#utility.yul\":11748:11778   */\n      swap4\n      pop\n        /* \"#utility.yul\":11821:11825   */\n      dup1\n        /* \"#utility.yul\":11811:11819   */\n      dup7\n        /* \"#utility.yul\":11807:11826   */\n      and\n        /* \"#utility.yul\":11800:11805   */\n      dup5\n        /* \"#utility.yul\":11797:11827   */\n      or\n        /* \"#utility.yul\":11787:11827   */\n      swap3\n      pop\n        /* \"#utility.yul\":11516:11833   */\n      pop\n      pop\n        /* \"#utility.yul\":11440:11833   */\n      swap4\n      swap3\n      pop\n      pop\n      pop\n      jump\t// out\n        /* \"#utility.yul\":11839:11899   */\n    tag_143:\n        /* \"#utility.yul\":11867:11870   */\n      0x00\n        /* \"#utility.yul\":11888:11893   */\n      dup2\n        /* \"#utility.yul\":11881:11893   */\n      swap1\n      pop\n        /* \"#utility.yul\":11839:11899   */\n      swap2\n      swap1\n      pop\n      jump\t// out\n        /* \"#utility.yul\":11905:12047   */\n    tag_144:\n        /* \"#utility.yul\":11955:11964   */\n      0x00\n        /* \"#utility.yul\":11988:12041   */\n      tag_285\n        /* \"#utility.yul\":12006:12040   */\n      tag_286\n        /* \"#utility.yul\":12015:12039   */\n      tag_287\n        /* \"#utility.yul\":12033:12038   */\n      dup5\n        /* \"#utility.yul\":12015:12039   */\n      tag_105\n      jump\t// in\n    tag_287:\n        /* \"#utility.yul\":12006:12040   */\n      tag_143\n      jump\t// in\n    tag_286:\n        /* \"#utility.yul\":11988:12041   */\n      tag_105\n      jump\t// in\n    tag_285:\n        /* \"#utility.yul\":11975:12041   */\n      swap1\n      pop\n        /* \"#utility.yul\":11905:12047   */\n      swap2\n      swap1\n      pop\n      jump\t// out\n        /* \"#utility.yul\":12053:12128   */\n    tag_145:\n        /* \"#utility.yul\":12096:12099   */\n      0x00\n        /* \"#utility.yul\":12117:12122   */\n      dup2\n        /* \"#utility.yul\":12110:12122   */\n      swap1\n      pop\n        /* \"#utility.yul\":12053:12128   */\n      swap2\n      swap1\n      pop\n      jump\t// out\n        /* \"#utility.yul\":12134:12403   */\n    tag_146:\n        /* \"#utility.yul\":12244:12283   */\n      tag_290\n        /* \"#utility.yul\":12275:12282   */\n      dup4\n        /* \"#utility.yul\":12244:12283   */\n      tag_144\n      jump\t// in\n    tag_290:\n        /* \"#utility.yul\":12305:12396   */\n      tag_291\n        /* \"#utility.yul\":12354:12395   */\n      tag_292\n        /* \"#utility.yul\":12378:12394   */\n      dup3\n        /* \"#utility.yul\":12354:12395   */\n      tag_145\n      jump\t// in\n    tag_292:\n        /* \"#utility.yul\":12346:12352   */\n      dup5\n        /* \"#utility.yul\":12339:12343   */\n      dup5\n        /* \"#utility.yul\":12333:12344   */\n      sload\n        /* \"#utility.yul\":12305:12396   */\n      tag_142\n      jump\t// in\n    tag_291:\n        /* \"#utility.yul\":12299:12303   */\n      dup3\n        /* \"#utility.yul\":12292:12397   */\n      sstore\n        /* \"#utility.yul\":12210:12403   */\n      pop\n        /* \"#utility.yul\":12134:12403   */\n      pop\n      pop\n      pop\n      jump\t// out\n        /* \"#utility.yul\":12409:12482   */\n    tag_147:\n        /* \"#utility.yul\":12454:12457   */\n      0x00\n        /* \"#utility.yul\":12409:12482   */\n      swap1\n      jump\t// out\n        /* \"#utility.yul\":12488:12677   */\n    tag_148:\n        /* \"#utility.yul\":12565:12597   */\n      tag_295\n      tag_147\n      jump\t// in\n    tag_295:\n        /* \"#utility.yul\":12606:12671   */\n      tag_296\n        /* \"#utility.yul\":12664:12670   */\n      dup2\n        /* \"#utility.yul\":12656:12662   */\n      dup5\n        /* \"#utility.yul\":12650:12654   */\n      dup5\n        /* \"#utility.yul\":12606:12671   */\n      tag_146\n      jump\t// in\n    tag_296:\n        /* \"#utility.yul\":12541:12677   */\n      pop\n        /* \"#utility.yul\":12488:12677   */\n      pop\n      pop\n      jump\t// out\n        /* \"#utility.yul\":12683:12869   */\n    tag_149:\n        /* \"#utility.yul\":12743:12863   */\n    tag_298:\n        /* \"#utility.yul\":12760:12763   */\n      dup2\n        /* \"#utility.yul\":12753:12758   */\n      dup2\n        /* \"#utility.yul\":12750:12764   */\n      lt\n        /* \"#utility.yul\":12743:12863   */\n      iszero\n      tag_300\n      jumpi\n        /* \"#utility.yul\":12814:12853   */\n      tag_301\n        /* \"#utility.yul\":12851:12852   */\n      0x00\n        /* \"#utility.yul\":12844:12849   */\n      dup3\n        /* \"#utility.yul\":12814:12853   */\n      tag_148\n      jump\t// in\n    tag_301:\n        /* \"#utility.yul\":12787:12788   */\n      0x01\n        /* \"#utility.yul\":12780:12785   */\n      dup2\n        /* \"#utility.yul\":12776:12789   */\n      add\n        /* \"#utility.yul\":12767:12789   */\n      swap1\n      pop\n        /* \"#utility.yul\":12743:12863   */\n      jump(tag_298)\n    tag_300:\n        /* \"#utility.yul\":12683:12869   */\n      pop\n      pop\n      jump\t// out\n        /* \"#utility.yul\":12875:13418   */\n    tag_150:\n        /* \"#utility.yul\":12976:12978   */\n      0x1f\n        /* \"#utility.yul\":12971:12974   */\n      dup3\n        /* \"#utility.yul\":12968:12979   */\n      gt\n        /* \"#utility.yul\":12965:13411   */\n      iszero\n      tag_303\n      jumpi\n        /* \"#utility.yul\":13010:13048   */\n      tag_304\n        /* \"#utility.yul\":13042:13047   */\n      dup2\n        /* \"#utility.yul\":13010:13048   */\n      tag_139\n      jump\t// in\n    tag_304:\n        /* \"#utility.yul\":13094:13123   */\n      tag_305\n        /* \"#utility.yul\":13112:13122   */\n      dup5\n        /* \"#utility.yul\":13094:13123   */\n      tag_140\n      jump\t// in\n    tag_305:\n        /* \"#utility.yul\":13084:13092   */\n      dup2\n        /* \"#utility.yul\":13080:13124   */\n      add\n        /* \"#utility.yul\":13277:13279   */\n      0x20\n        /* \"#utility.yul\":13265:13275   */\n      dup6\n        /* \"#utility.yul\":13262:13280   */\n      lt\n        /* \"#utility.yul\":13259:13308   */\n      iszero\n      tag_306\n      jumpi\n        /* \"#utility.yul\":13298:13306   */\n      dup2\n        /* \"#utility.yul\":13283:13306   */\n      swap1\n      pop\n        /* \"#utility.yul\":13259:13308   */\n    tag_306:\n        /* \"#utility.yul\":13321:13401   */\n      tag_307\n        /* \"#utility.yul\":13377:13399   */\n      tag_308\n        /* \"#utility.yul\":13395:13398   */\n      dup6\n        /* \"#utility.yul\":13377:13399   */\n      tag_140\n      jump\t// in\n    tag_308:\n        /* \"#utility.yul\":13367:13375   */\n      dup4\n        /* \"#utility.yul\":13363:13400   */\n      add\n        /* \"#utility.yul\":13350:13361   */\n      dup3\n        /* \"#utility.yul\":13321:13401   */\n      tag_149\n      jump\t// in\n    tag_307:\n        /* \"#utility.yul\":12980:13411   */\n      pop\n      pop\n        /* \"#utility.yul\":12965:13411   */\n    tag_303:\n        /* \"#utility.yul\":12875:13418   */\n      pop\n      pop\n      pop\n      jump\t// out\n        /* \"#utility.yul\":13424:13541   */\n    tag_151:\n        /* \"#utility.yul\":13478:13486   */\n      0x00\n        /* \"#utility.yul\":13528:13533   */\n      dup3\n        /* \"#utility.yul\":13522:13526   */\n      dup3\n        /* \"#utility.yul\":13518:13534   */\n      shr\n        /* \"#utility.yul\":13497:13534   */\n      swap1\n      pop\n        /* \"#utility.yul\":13424:13541   */\n      swap3\n      swap2\n      pop\n      pop\n      jump\t// out\n        /* \"#utility.yul\":13547:13716   */\n    tag_152:\n        /* \"#utility.yul\":13591:13597   */\n      0x00\n        /* \"#utility.yul\":13624:13675   */\n      tag_311\n        /* \"#utility.yul\":13672:13673   */\n      0x00\n        /* \"#utility.yul\":13668:13674   */\n      not\n        /* \"#utility.yul\":13660:13665   */\n      dup5\n        /* \"#utility.yul\":13657:13658   */\n      0x08\n        /* \"#utility.yul\":13653:13666   */\n      mul\n        /* \"#utility.yul\":13624:13675   */\n      tag_151\n      jump\t// in\n    tag_311:\n        /* \"#utility.yul\":13620:13676   */\n      not\n        /* \"#utility.yul\":13705:13709   */\n      dup1\n        /* \"#utility.yul\":13699:13703   */\n      dup4\n        /* \"#utility.yul\":13695:13710   */\n      and\n        /* \"#utility.yul\":13685:13710   */\n      swap2\n      pop\n        /* \"#utility.yul\":13598:13716   */\n      pop\n        /* \"#utility.yul\":13547:13716   */\n      swap3\n      swap2\n      pop\n      pop\n      jump\t// out\n        /* \"#utility.yul\":13721:14016   */\n    tag_153:\n        /* \"#utility.yul\":13797:13801   */\n      0x00\n        /* \"#utility.yul\":13943:13972   */\n      tag_313\n        /* \"#utility.yul\":13968:13971   */\n      dup4\n        /* \"#utility.yul\":13962:13966   */\n      dup4\n        /* \"#utility.yul\":13943:13972   */\n      tag_152\n      jump\t// in\n    tag_313:\n        /* \"#utility.yul\":13935:13972   */\n      swap2\n      pop\n        /* \"#utility.yul\":14005:14008   */\n      dup3\n        /* \"#utility.yul\":14002:14003   */\n      0x02\n        /* \"#utility.yul\":13998:14009   */\n      mul\n        /* \"#utility.yul\":13992:13996   */\n      dup3\n        /* \"#utility.yul\":13989:14010   */\n      or\n        /* \"#utility.yul\":13981:14010   */\n      swap1\n      pop\n        /* \"#utility.yul\":13721:14016   */\n      swap3\n      swap2\n      pop\n      pop\n      jump\t// out\n        /* \"#utility.yul\":14021:15416   */\n    tag_89:\n        /* \"#utility.yul\":14138:14175   */\n      tag_315\n        /* \"#utility.yul\":14171:14174   */\n      dup3\n        /* \"#utility.yul\":14138:14175   */\n      tag_116\n      jump\t// in\n    tag_315:\n        /* \"#utility.yul\":14240:14258   */\n      0xffffffffffffffff\n        /* \"#utility.yul\":14232:14238   */\n      dup2\n        /* \"#utility.yul\":14229:14259   */\n      gt\n        /* \"#utility.yul\":14226:14282   */\n      iszero\n      tag_316\n      jumpi\n        /* \"#utility.yul\":14262:14280   */\n      tag_317\n      tag_125\n      jump\t// in\n    tag_317:\n        /* \"#utility.yul\":14226:14282   */\n    tag_316:\n        /* \"#utility.yul\":14306:14344   */\n      tag_318\n        /* \"#utility.yul\":14338:14342   */\n      dup3\n        /* \"#utility.yul\":14332:14343   */\n      sload\n        /* \"#utility.yul\":14306:14344   */\n      tag_79\n      jump\t// in\n    tag_318:\n        /* \"#utility.yul\":14391:14458   */\n      tag_319\n        /* \"#utility.yul\":14451:14457   */\n      dup3\n        /* \"#utility.yul\":14443:14449   */\n      dup3\n        /* \"#utility.yul\":14437:14441   */\n      dup6\n        /* \"#utility.yul\":14391:14458   */\n      tag_150\n      jump\t// in\n    tag_319:\n        /* \"#utility.yul\":14485:14486   */\n      0x00\n        /* \"#utility.yul\":14509:14513   */\n      0x20\n        /* \"#utility.yul\":14496:14513   */\n      swap1\n      pop\n        /* \"#utility.yul\":14541:14543   */\n      0x1f\n        /* \"#utility.yul\":14533:14539   */\n      dup4\n        /* \"#utility.yul\":14530:14544   */\n      gt\n        /* \"#utility.yul\":14558:14559   */\n      0x01\n        /* \"#utility.yul\":14553:15171   */\n      dup2\n      eq\n      tag_321\n      jumpi\n        /* \"#utility.yul\":15215:15216   */\n      0x00\n        /* \"#utility.yul\":15232:15238   */\n      dup5\n        /* \"#utility.yul\":15229:15306   */\n      iszero\n      tag_322\n      jumpi\n        /* \"#utility.yul\":15281:15290   */\n      dup3\n        /* \"#utility.yul\":15276:15279   */\n      dup8\n        /* \"#utility.yul\":15272:15291   */\n      add\n        /* \"#utility.yul\":15266:15292   */\n      mload\n        /* \"#utility.yul\":15257:15292   */\n      swap1\n      pop\n        /* \"#utility.yul\":15229:15306   */\n    tag_322:\n        /* \"#utility.yul\":15332:15399   */\n      tag_323\n        /* \"#utility.yul\":15392:15398   */\n      dup6\n        /* \"#utility.yul\":15385:15390   */\n      dup3\n        /* \"#utility.yul\":15332:15399   */\n      tag_153\n      jump\t// in\n    tag_323:\n        /* \"#utility.yul\":15326:15330   */\n      dup7\n        /* \"#utility.yul\":15319:15400   */\n      sstore\n        /* \"#utility.yul\":15188:15410   */\n      pop\n        /* \"#utility.yul\":14523:15410   */\n      jump(tag_320)\n        /* \"#utility.yul\":14553:15171   */\n    tag_321:\n        /* \"#utility.yul\":14605:14609   */\n      0x1f\n        /* \"#utility.yul\":14601:14610   */\n      not\n        /* \"#utility.yul\":14593:14599   */\n      dup5\n        /* \"#utility.yul\":14589:14611   */\n      and\n        /* \"#utility.yul\":14639:14676   */\n      tag_324\n        /* \"#utility.yul\":14671:14675   */\n      dup7\n        /* \"#utility.yul\":14639:14676   */\n      tag_139\n      jump\t// in\n    tag_324:\n        /* \"#utility.yul\":14698:14699   */\n      0x00\n        /* \"#utility.yul\":14712:14920   */\n    tag_325:\n        /* \"#utility.yul\":14726:14733   */\n      dup3\n        /* \"#utility.yul\":14723:14724   */\n      dup2\n        /* \"#utility.yul\":14720:14734   */\n      lt\n        /* \"#utility.yul\":14712:14920   */\n      iszero\n      tag_327\n      jumpi\n        /* \"#utility.yul\":14805:14814   */\n      dup5\n        /* \"#utility.yul\":14800:14803   */\n      dup10\n        /* \"#utility.yul\":14796:14815   */\n      add\n        /* \"#utility.yul\":14790:14816   */\n      mload\n        /* \"#utility.yul\":14782:14788   */\n      dup3\n        /* \"#utility.yul\":14775:14817   */\n      sstore\n        /* \"#utility.yul\":14856:14857   */\n      0x01\n        /* \"#utility.yul\":14848:14854   */\n      dup3\n        /* \"#utility.yul\":14844:14858   */\n      add\n        /* \"#utility.yul\":14834:14858   */\n      swap2\n      pop\n        /* \"#utility.yul\":14903:14905   */\n      0x20\n        /* \"#utility.yul\":14892:14901   */\n      dup6\n        /* \"#utility.yul\":14888:14906   */\n      add\n        /* \"#utility.yul\":14875:14906   */\n      swap5\n      pop\n        /* \"#utility.yul\":14749:14753   */\n      0x20\n        /* \"#utility.yul\":14746:14747   */\n      dup2\n        /* \"#utility.yul\":14742:14754   */\n      add\n        /* \"#utility.yul\":14737:14754   */\n      swap1\n      pop\n        /* \"#utility.yul\":14712:14920   */\n      jump(tag_325)\n    tag_327:\n        /* \"#utility.yul\":14948:14954   */\n      dup7\n        /* \"#utility.yul\":14939:14946   */\n      dup4\n        /* \"#utility.yul\":14936:14955   */\n      lt\n        /* \"#utility.yul\":14933:15112   */\n      iszero\n      tag_328\n      jumpi\n        /* \"#utility.yul\":15006:15015   */\n      dup5\n        /* \"#utility.yul\":15001:15004   */\n      dup10\n        /* \"#utility.yul\":14997:15016   */\n      add\n        /* \"#utility.yul\":14991:15017   */\n      mload\n        /* \"#utility.yul\":15049:15097   */\n      tag_329\n        /* \"#utility.yul\":15091:15095   */\n      0x1f\n        /* \"#utility.yul\":15083:15089   */\n      dup10\n        /* \"#utility.yul\":15079:15096   */\n      and\n        /* \"#utility.yul\":15068:15077   */\n      dup3\n        /* \"#utility.yul\":15049:15097   */\n      tag_152\n      jump\t// in\n    tag_329:\n        /* \"#utility.yul\":15041:15047   */\n      dup4\n        /* \"#utility.yul\":15034:15098   */\n      sstore\n        /* \"#utility.yul\":14956:15112   */\n      pop\n        /* \"#utility.yul\":14933:15112   */\n    tag_328:\n        /* \"#utility.yul\":15158:15159   */\n      0x01\n        /* \"#utility.yul\":15154:15155   */\n      0x02\n        /* \"#utility.yul\":15146:15152   */\n      dup9\n        /* \"#utility.yul\":15142:15156   */\n      mul\n        /* \"#utility.yul\":15138:15160   */\n      add\n        /* \"#utility.yul\":15132:15136   */\n      dup9\n        /* \"#utility.yul\":15125:15161   */\n      sstore\n        /* \"#utility.yul\":14560:15171   */\n      pop\n      pop\n      pop\n        /* \"#utility.yul\":14523:15410   */\n    tag_320:\n      pop\n        /* \"#utility.yul\":14113:15416   */\n      pop\n      pop\n      pop\n        /* \"#utility.yul\":14021:15416   */\n      pop\n      pop\n      jump\t// out\n        /* \"#utility.yul\":15422:15655   */\n    tag_93:\n        /* \"#utility.yul\":15461:15464   */\n      0x00\n        /* \"#utility.yul\":15484:15508   */\n      tag_331\n        /* \"#utility.yul\":15502:15507   */\n      dup3\n        /* \"#utility.yul\":15484:15508   */\n      tag_105\n      jump\t// in\n    tag_331:\n        /* \"#utility.yul\":15475:15508   */\n      swap2\n      pop\n        /* \"#utility.yul\":15530:15596   */\n      0xffffffffffffffffffffffffffffffffffffffffffffffffffffffffffffffff\n        /* \"#utility.yul\":15523:15528   */\n      dup3\n        /* \"#utility.yul\":15520:15597   */\n      sub\n        /* \"#utility.yul\":15517:15620   */\n      tag_332\n      jumpi\n        /* \"#utility.yul\":15600:15618   */\n      tag_333\n      tag_135\n      jump\t// in\n    tag_333:\n        /* \"#utility.yul\":15517:15620   */\n    tag_332:\n        /* \"#utility.yul\":15647:15648   */\n      0x01\n        /* \"#utility.yul\":15640:15645   */\n      dup3\n        /* \"#utility.yul\":15636:15649   */\n      add\n        /* \"#utility.yul\":15629:15649   */\n      swap1\n      pop\n        /* \"#utility.yul\":15422:15655   */\n      swap2\n      swap1\n      pop\n      jump\t// out\n\n    auxdata: 0xa26469706673582212207117b42c0ad2797f632f437b74bfb71bbd22a966943b9e70edaf67fe311c0ee264736f6c63430008130033\n}\n","bytecode":{"linkReferences":{},"object":"60806040523480156200001157600080fd5b50604051620013b6380380620013b683398181016040528101906200003791906200012b565b806000806101000a81548173ffffffffffffffffffffffffffffffffffffffff021916908373ffffffffffffffffffffffffffffffffffffffff16021790555081600181905550505062000172565b600080fd5b6000819050919050565b620000a0816200008b565b8114620000ac57600080fd5b50565b600081519050620000c08162000095565b92915050565b600073ffffffffffffffffffffffffffffffffffffffff82169050919050565b6000620000f382620000c6565b9050919050565b6200010581620000e6565b81146200011157600080fd5b50565b6000815190506200012581620000fa565b92915050565b6000806040838503121562000145576200014462000086565b5b60006200015585828601620000af565b9250506020620001688582860162000114565b9150509250929050565b61123480620001826000396000f3fe6080604052600436106100915760003560e01c80638a9cfd55116100595780638a9cfd5514610186578063937e09b1146101af578063ab2850da146101da578063d7bb99ba14610217578063d7d1bbdb1461022157610091565b806303441006146100965780630a144391146100b2578063481c6a75146100ef5780637569b3d71461011a57806381d12c5814610145575b600080fd5b6100b060048036038101906100ab919061092b565b61024a565b005b3480156100be57600080fd5b506100d960048036038101906100d491906109b6565b6103c8565b6040516100e691906109fe565b60405180910390f35b3480156100fb57600080fd5b506101046103e8565b6040516101119190610a28565b60405180910390f35b34801561012657600080fd5b5061012f61040c565b60405161013c9190610a52565b60405180910390f35b34801561015157600080fd5b5061016c6004803603810190610167919061092b565b610412565b60405161017d959493929190610b1e565b60405180910390f35b34801561019257600080fd5b506101ad60048036038101906101a89190610cd9565b61050d565b005b3480156101bb57600080fd5b506101c461066f565b6040516101d19190610a52565b60405180910390f35b3480156101e657600080fd5b5061020160048036038101906101fc9190610d48565b610675565b60405161020e91906109fe565b60405180910390f35b61021f6106a4565b005b34801561022d57600080fd5b506102486004803603810190610243919061092b565b610724565b005b60008054906101000a900473ffffffffffffffffffffffffffffffffffffffff1673ffffffffffffffffffffffffffffffffffffffff163373ffffffffffffffffffffffffffffffffffffffff16146102a257600080fd5b6000600482815481106102b8576102b7610d88565b5b9060005260206000209060040201905060026005546102d79190610e15565b81600301541161031c576040517f08c379a000000000000000000000000000000000000000000000000000000000815260040161031390610eb8565b60405180910390fd5b8060020160149054906101000a900460ff161561033857600080fd5b8060020160009054906101000a900473ffffffffffffffffffffffffffffffffffffffff1673ffffffffffffffffffffffffffffffffffffffff166108fc82600101549081150290604051600060405180830381858888f193505050501580156103a6573d6000803e3d6000fd5b5060018160020160146101000a81548160ff0219169083151502179055505050565b60026020528060005260406000206000915054906101000a900460ff1681565b60008054906101000a900473ffffffffffffffffffffffffffffffffffffffff1681565b60055481565b6004818154811061042257600080fd5b906000526020600020906004020160009150905080600001805461044590610f07565b80601f016020809104026020016040519081016040528092919081815260200182805461047190610f07565b80156104be5780601f10610493576101008083540402835291602001916104be565b820191906000526020600020905b8154815290600101906020018083116104a157829003601f168201915b5050505050908060010154908060020160009054906101000a900473ffffffffffffffffffffffffffffffffffffffff16908060020160149054906101000a900460ff16908060030154905085565b60008054906101000a900473ffffffffffffffffffffffffffffffffffffffff1673ffffffffffffffffffffffffffffffffffffffff163373ffffffffffffffffffffffffffffffffffffffff161461056557600080fd5b60006040518060a001604052808581526020018481526020018373ffffffffffffffffffffffffffffffffffffffff16815260200160001515815260200160008152509050600481908060018154018082558091505060019003906000526020600020906004020160009091909190915060008201518160000190816105eb91906110e4565b506020820151816001015560408201518160020160006101000a81548173ffffffffffffffffffffffffffffffffffffffff021916908373ffffffffffffffffffffffffffffffffffffffff16021790555060608201518160020160146101000a81548160ff02191690831515021790555060808201518160030155505050505050565b60015481565b60036020528160005260406000206020528060005260406000206000915091509054906101000a900460ff1681565b60015434116106b257600080fd5b6001600260003373ffffffffffffffffffffffffffffffffffffffff1673ffffffffffffffffffffffffffffffffffffffff16815260200190815260200160002060006101000a81548160ff0219169083151502179055506005600081548092919061071d906111b6565b9190505550565b600260003373ffffffffffffffffffffffffffffffffffffffff1673ffffffffffffffffffffffffffffffffffffffff16815260200190815260200160002060009054906101000a900460ff1661077a57600080fd5b60008054906101000a900473ffffffffffffffffffffffffffffffffffffffff1673ffffffffffffffffffffffffffffffffffffffff163373ffffffffffffffffffffffffffffffffffffffff16036107d257600080fd5b6003600082815260200190815260200160002060003373ffffffffffffffffffffffffffffffffffffffff1673ffffffffffffffffffffffffffffffffffffffff16815260200190815260200160002060009054906101000a900460ff161561083a57600080fd5b60016003600083815260200190815260200160002060003373ffffffffffffffffffffffffffffffffffffffff1673ffffffffffffffffffffffffffffffffffffffff16815260200190815260200160002060006101000a81548160ff021916908315150217905550600481815481106108b7576108b6610d88565b5b906000526020600020906004020160030160008154809291906108d9906111b6565b919050555050565b6000604051905090565b600080fd5b600080fd5b6000819050919050565b610908816108f5565b811461091357600080fd5b50565b600081359050610925816108ff565b92915050565b600060208284031215610941576109406108eb565b5b600061094f84828501610916565b91505092915050565b600073ffffffffffffffffffffffffffffffffffffffff82169050919050565b600061098382610958565b9050919050565b61099381610978565b811461099e57600080fd5b50565b6000813590506109b08161098a565b92915050565b6000602082840312156109cc576109cb6108eb565b5b60006109da848285016109a1565b91505092915050565b60008115159050919050565b6109f8816109e3565b82525050565b6000602082019050610a1360008301846109ef565b92915050565b610a2281610978565b82525050565b6000602082019050610a3d6000830184610a19565b92915050565b610a4c816108f5565b82525050565b6000602082019050610a676000830184610a43565b92915050565b600081519050919050565b600082825260208201905092915050565b60005b83811015610aa7578082015181840152602081019050610a8c565b60008484015250505050565b6000601f19601f8301169050919050565b6000610acf82610a6d565b610ad98185610a78565b9350610ae9818560208601610a89565b610af281610ab3565b840191505092915050565b6000610b0882610958565b9050919050565b610b1881610afd565b82525050565b600060a0820190508181036000830152610b388188610ac4565b9050610b476020830187610a43565b610b546040830186610b0f565b610b6160608301856109ef565b610b6e6080830184610a43565b9695505050505050565b600080fd5b600080fd5b7f4e487b7100000000000000000000000000000000000000000000000000000000600052604160045260246000fd5b610bba82610ab3565b810181811067ffffffffffffffff82111715610bd957610bd8610b82565b5b80604052505050565b6000610bec6108e1565b9050610bf88282610bb1565b919050565b600067ffffffffffffffff821115610c1857610c17610b82565b5b610c2182610ab3565b9050602081019050919050565b82818337600083830152505050565b6000610c50610c4b84610bfd565b610be2565b905082815260208101848484011115610c6c57610c6b610b7d565b5b610c77848285610c2e565b509392505050565b600082601f830112610c9457610c93610b78565b5b8135610ca4848260208601610c3d565b91505092915050565b610cb681610afd565b8114610cc157600080fd5b50565b600081359050610cd381610cad565b92915050565b600080600060608486031215610cf257610cf16108eb565b5b600084013567ffffffffffffffff811115610d1057610d0f6108f0565b5b610d1c86828701610c7f565b9350506020610d2d86828701610916565b9250506040610d3e86828701610cc4565b9150509250925092565b60008060408385031215610d5f57610d5e6108eb565b5b6000610d6d85828601610916565b9250506020610d7e858286016109a1565b9150509250929050565b7f4e487b7100000000000000000000000000000000000000000000000000000000600052603260045260246000fd5b7f4e487b7100000000000000000000000000000000000000000000000000000000600052601260045260246000fd5b7f4e487b7100000000000000000000000000000000000000000000000000000000600052601160045260246000fd5b6000610e20826108f5565b9150610e2b836108f5565b925082610e3b57610e3a610db7565b5b828204905092915050565b7f54686572652068617320746f206265206d6f7265206174206c6561737420353060008201527f252070657263656e74206f6620617070726f7665730000000000000000000000602082015250565b6000610ea2603583610a78565b9150610ead82610e46565b604082019050919050565b60006020820190508181036000830152610ed181610e95565b9050919050565b7f4e487b7100000000000000000000000000000000000000000000000000000000600052602260045260246000fd5b60006002820490506001821680610f1f57607f821691505b602082108103610f3257610f31610ed8565b5b50919050565b60008190508160005260206000209050919050565b60006020601f8301049050919050565b600082821b905092915050565b600060088302610f9a7fffffffffffffffffffffffffffffffffffffffffffffffffffffffffffffffff82610f5d565b610fa48683610f5d565b95508019841693508086168417925050509392505050565b6000819050919050565b6000610fe1610fdc610fd7846108f5565b610fbc565b6108f5565b9050919050565b6000819050919050565b610ffb83610fc6565b61100f61100782610fe8565b848454610f6a565b825550505050565b600090565b611024611017565b61102f818484610ff2565b505050565b5b818110156110535761104860008261101c565b600181019050611035565b5050565b601f8211156110985761106981610f38565b61107284610f4d565b81016020851015611081578190505b61109561108d85610f4d565b830182611034565b50505b505050565b600082821c905092915050565b60006110bb6000198460080261109d565b1980831691505092915050565b60006110d483836110aa565b9150826002028217905092915050565b6110ed82610a6d565b67ffffffffffffffff81111561110657611105610b82565b5b6111108254610f07565b61111b828285611057565b600060209050601f83116001811461114e576000841561113c578287015190505b61114685826110c8565b8655506111ae565b601f19841661115c86610f38565b60005b828110156111845784890151825560018201915060208501945060208101905061115f565b868310156111a1578489015161119d601f8916826110aa565b8355505b6001600288020188555050505b505050505050565b60006111c1826108f5565b91507fffffffffffffffffffffffffffffffffffffffffffffffffffffffffffffffff82036111f3576111f2610de6565b5b60018201905091905056fea26469706673582212207117b42c0ad2797f632f437b74bfb71bbd22a966943b9e70edaf67fe311c0ee264736f6c63430008130033","opcodes":"PUSH1 0x80 PUSH1 0x40 MSTORE CALLVALUE DUP1 ISZERO PUSH3 0x11 JUMPI PUSH1 0x0 DUP1 REVERT JUMPDEST POP PUSH1 0x40 MLOAD PUSH3 0x13B6 CODESIZE SUB DUP1 PUSH3 0x13B6 DUP4 CODECOPY DUP2 DUP2 ADD PUSH1 0x40 MSTORE DUP2 ADD SWAP1 PUSH3 0x37 SWAP2 SWAP1 PUSH3 0x12B JUMP JUMPDEST DUP1 PUSH1 0x0 DUP1 PUSH2 0x100 EXP DUP2 SLOAD DUP2 PUSH20 0xFFFFFFFFFFFFFFFFFFFFFFFFFFFFFFFFFFFFFFFF MUL NOT AND SWAP1 DUP4 PUSH20 0xFFFFFFFFFFFFFFFFFFFFFFFFFFFFFFFFFFFFFFFF AND MUL OR SWAP1 SSTORE POP DUP2 PUSH1 0x1 DUP2 SWAP1 SSTORE POP POP POP PUSH3 0x172 JUMP JUMPDEST PUSH1 0x0 DUP1 REVERT JUMPDEST PUSH1 0x0 DUP2 SWAP1 POP SWAP2 SWAP1 POP JUMP JUMPDEST PUSH3 0xA0 DUP2 PUSH3 0x8B JUMP JUMPDEST DUP2 EQ PUSH3 0xAC JUMPI PUSH1 0x0 DUP1 REVERT JUMPDEST POP JUMP JUMPDEST PUSH1 0x0 DUP2 MLOAD SWAP1 POP PUSH3 0xC0 DUP2 PUSH3 0x95 JUMP JUMPDEST SWAP3 SWAP2 POP POP JUMP JUMPDEST PUSH1 0x0 PUSH20 0xFFFFFFFFFFFFFFFFFFFFFFFFFFFFFFFFFFFFFFFF DUP3 AND SWAP1 POP SWAP2 SWAP1 POP JUMP JUMPDEST PUSH1 0x0 PUSH3 0xF3 DUP3 PUSH3 0xC6 JUMP JUMPDEST SWAP1 POP SWAP2 SWAP1 POP JUMP JUMPDEST PUSH3 0x105 DUP2 PUSH3 0xE6 JUMP JUMPDEST DUP2 EQ PUSH3 0x111 JUMPI PUSH1 0x0 DUP1 REVERT JUMPDEST POP JUMP JUMPDEST PUSH1 0x0 DUP2 MLOAD SWAP1 POP PUSH3 0x125 DUP2 PUSH3 0xFA JUMP JUMPDEST SWAP3 SWAP2 POP POP JUMP JUMPDEST PUSH1 0x0 DUP1 PUSH1 0x40 DUP4 DUP6 SUB SLT ISZERO PUSH3 0x145 JUMPI PUSH3 0x144 PUSH3 0x86 JUMP JUMPDEST JUMPDEST PUSH1 0x0 PUSH3 0x155 DUP6 DUP3 DUP7 ADD PUSH3 0xAF JUMP JUMPDEST SWAP3 POP POP PUSH1 0x20 PUSH3 0x168 DUP6 DUP3 DUP7 ADD PUSH3 0x114 JUMP JUMPDEST SWAP2 POP POP SWAP3 POP SWAP3 SWAP1 POP JUMP JUMPDEST PUSH2 0x1234 DUP1 PUSH3 0x182 PUSH1 0x0 CODECOPY PUSH1 0x0 RETURN INVALID PUSH1 0x80 PUSH1 0x40 MSTORE PUSH1 0x4 CALLDATASIZE LT PUSH2 0x91 JUMPI PUSH1 0x0 CALLDATALOAD PUSH1 0xE0 SHR DUP1 PUSH4 0x8A9CFD55 GT PUSH2 0x59 JUMPI DUP1 PUSH4 0x8A9CFD55 EQ PUSH2 0x186 JUMPI DUP1 PUSH4 0x937E09B1 EQ PUSH2 0x1AF JUMPI DUP1 PUSH4 0xAB2850DA EQ PUSH2 0x1DA JUMPI DUP1 PUSH4 0xD7BB99BA EQ PUSH2 0x217 JUMPI DUP1 PUSH4 0xD7D1BBDB EQ PUSH2 0x221 JUMPI PUSH2 0x91 JUMP JUMPDEST DUP1 PUSH4 0x3441006 EQ PUSH2 0x96 JUMPI DUP1 PUSH4 0xA144391 EQ PUSH2 0xB2 JUMPI DUP1 PUSH4 0x481C6A75 EQ PUSH2 0xEF JUMPI DUP1 PUSH4 0x7569B3D7 EQ PUSH2 0x11A JUMPI DUP1 PUSH4 0x81D12C58 EQ PUSH2 0x145 JUMPI JUMPDEST PUSH1 0x0 DUP1 REVERT JUMPDEST PUSH2 0xB0 PUSH1 0x4 DUP1 CALLDATASIZE SUB DUP2 ADD SWAP1 PUSH2 0xAB SWAP2 SWAP1 PUSH2 0x92B JUMP JUMPDEST PUSH2 0x24A JUMP JUMPDEST STOP JUMPDEST CALLVALUE DUP1 ISZERO PUSH2 0xBE JUMPI PUSH1 0x0 DUP1 REVERT JUMPDEST POP PUSH2 0xD9 PUSH1 0x4 DUP1 CALLDATASIZE SUB DUP2 ADD SWAP1 PUSH2 0xD4 SWAP2 SWAP1 PUSH2 0x9B6 JUMP JUMPDEST PUSH2 0x3C8 JUMP JUMPDEST PUSH1 0x40 MLOAD PUSH2 0xE6 SWAP2 SWAP1 PUSH2 0x9FE JUMP JUMPDEST PUSH1 0x40 MLOAD DUP1 SWAP2 SUB SWAP1 RETURN JUMPDEST CALLVALUE DUP1 ISZERO PUSH2 0xFB JUMPI PUSH1 0x0 DUP1 REVERT JUMPDEST POP PUSH2 0x104 PUSH2 0x3E8 JUMP JUMPDEST PUSH1 0x40 MLOAD PUSH2 0x111 SWAP2 SWAP1 PUSH2 0xA28 JUMP JUMPDEST PUSH1 0x40 MLOAD DUP1 SWAP2 SUB SWAP1 RETURN JUMPDEST CALLVALUE DUP1 ISZERO PUSH2 0x126 JUMPI PUSH1 0x0 DUP1 REVERT JUMPDEST POP PUSH2 0x12F PUSH2 0x40C JUMP JUMPDEST PUSH1 0x40 MLOAD PUSH2 0x13C SWAP2 SWAP1 PUSH2 0xA52 JUMP JUMPDEST PUSH1 0x40 MLOAD DUP1 SWAP2 SUB SWAP1 RETURN JUMPDEST CALLVALUE DUP1 ISZERO PUSH2 0x151 JUMPI PUSH1 0x0 DUP1 REVERT JUMPDEST POP PUSH2 0x16C PUSH1 0x4 DUP1 CALLDATASIZE SUB DUP2 ADD SWAP1 PUSH2 0x167 SWAP2 SWAP1 PUSH2 0x92B JUMP JUMPDEST PUSH2 0x412 JUMP JUMPDEST PUSH1 0x40 MLOAD PUSH2 0x17D SWAP6 SWAP5 SWAP4 SWAP3 SWAP2 SWAP1 PUSH2 0xB1E JUMP JUMPDEST PUSH1 0x40 MLOAD DUP1 SWAP2 SUB SWAP1 RETURN JUMPDEST CALLVALUE DUP1 ISZERO PUSH2 0x192 JUMPI PUSH1 0x0 DUP1 REVERT JUMPDEST POP PUSH2 0x1AD PUSH1 0x4 DUP1 CALLDATASIZE SUB DUP2 ADD SWAP1 PUSH2 0x1A8 SWAP2 SWAP1 PUSH2 0xCD9 JUMP JUMPDEST PUSH2 0x50D JUMP JUMPDEST STOP JUMPDEST CALLVALUE DUP1 ISZERO PUSH2 0x1BB JUMPI PUSH1 0x0 DUP1 REVERT JUMPDEST POP PUSH2 0x1C4 PUSH2 0x66F JUMP JUMPDEST PUSH1 0x40 MLOAD PUSH2 0x1D1 SWAP2 SWAP1 PUSH2 0xA52 JUMP JUMPDEST PUSH1 0x40 MLOAD DUP1 SWAP2 SUB SWAP1 RETURN JUMPDEST CALLVALUE DUP1 ISZERO PUSH2 0x1E6 JUMPI PUSH1 0x0 DUP1 REVERT JUMPDEST POP PUSH2 0x201 PUSH1 0x4 DUP1 CALLDATASIZE SUB DUP2 ADD SWAP1 PUSH2 0x1FC SWAP2 SWAP1 PUSH2 0xD48 JUMP JUMPDEST PUSH2 0x675 JUMP JUMPDEST PUSH1 0x40 MLOAD PUSH2 0x20E SWAP2 SWAP1 PUSH2 0x9FE JUMP JUMPDEST PUSH1 0x40 MLOAD DUP1 SWAP2 SUB SWAP1 RETURN JUMPDEST PUSH2 0x21F PUSH2 0x6A4 JUMP JUMPDEST STOP JUMPDEST CALLVALUE DUP1 ISZERO PUSH2 0x22D JUMPI PUSH1 0x0 DUP1 REVERT JUMPDEST POP PUSH2 0x248 PUSH1 0x4 DUP1 CALLDATASIZE SUB DUP2 ADD SWAP1 PUSH2 0x243 SWAP2 SWAP1 PUSH2 0x92B JUMP JUMPDEST PUSH2 0x724 JUMP JUMPDEST STOP JUMPDEST PUSH1 0x0 DUP1 SLOAD SWAP1 PUSH2 0x100 EXP SWAP1 DIV PUSH20 0xFFFFFFFFFFFFFFFFFFFFFFFFFFFFFFFFFFFFFFFF AND PUSH20 0xFFFFFFFFFFFFFFFFFFFFFFFFFFFFFFFFFFFFFFFF AND CALLER PUSH20 0xFFFFFFFFFFFFFFFFFFFFFFFFFFFFFFFFFFFFFFFF AND EQ PUSH2 0x2A2 JUMPI PUSH1 0x0 DUP1 REVERT JUMPDEST PUSH1 0x0 PUSH1 0x4 DUP3 DUP2 SLOAD DUP2 LT PUSH2 0x2B8 JUMPI PUSH2 0x2B7 PUSH2 0xD88 JUMP JUMPDEST JUMPDEST SWAP1 PUSH1 0x0 MSTORE PUSH1 0x20 PUSH1 0x0 KECCAK256 SWAP1 PUSH1 0x4 MUL ADD SWAP1 POP PUSH1 0x2 PUSH1 0x5 SLOAD PUSH2 0x2D7 SWAP2 SWAP1 PUSH2 0xE15 JUMP JUMPDEST DUP2 PUSH1 0x3 ADD SLOAD GT PUSH2 0x31C JUMPI PUSH1 0x40 MLOAD PUSH32 0x8C379A000000000000000000000000000000000000000000000000000000000 DUP2 MSTORE PUSH1 0x4 ADD PUSH2 0x313 SWAP1 PUSH2 0xEB8 JUMP JUMPDEST PUSH1 0x40 MLOAD DUP1 SWAP2 SUB SWAP1 REVERT JUMPDEST DUP1 PUSH1 0x2 ADD PUSH1 0x14 SWAP1 SLOAD SWAP1 PUSH2 0x100 EXP SWAP1 DIV PUSH1 0xFF AND ISZERO PUSH2 0x338 JUMPI PUSH1 0x0 DUP1 REVERT JUMPDEST DUP1 PUSH1 0x2 ADD PUSH1 0x0 SWAP1 SLOAD SWAP1 PUSH2 0x100 EXP SWAP1 DIV PUSH20 0xFFFFFFFFFFFFFFFFFFFFFFFFFFFFFFFFFFFFFFFF AND PUSH20 0xFFFFFFFFFFFFFFFFFFFFFFFFFFFFFFFFFFFFFFFF AND PUSH2 0x8FC DUP3 PUSH1 0x1 ADD SLOAD SWAP1 DUP2 ISZERO MUL SWAP1 PUSH1 0x40 MLOAD PUSH1 0x0 PUSH1 0x40 MLOAD DUP1 DUP4 SUB DUP2 DUP6 DUP9 DUP9 CALL SWAP4 POP POP POP POP ISZERO DUP1 ISZERO PUSH2 0x3A6 JUMPI RETURNDATASIZE PUSH1 0x0 DUP1 RETURNDATACOPY RETURNDATASIZE PUSH1 0x0 REVERT JUMPDEST POP PUSH1 0x1 DUP2 PUSH1 0x2 ADD PUSH1 0x14 PUSH2 0x100 EXP DUP2 SLOAD DUP2 PUSH1 0xFF MUL NOT AND SWAP1 DUP4 ISZERO ISZERO MUL OR SWAP1 SSTORE POP POP POP JUMP JUMPDEST PUSH1 0x2 PUSH1 0x20 MSTORE DUP1 PUSH1 0x0 MSTORE PUSH1 0x40 PUSH1 0x0 KECCAK256 PUSH1 0x0 SWAP2 POP SLOAD SWAP1 PUSH2 0x100 EXP SWAP1 DIV PUSH1 0xFF AND DUP2 JUMP JUMPDEST PUSH1 0x0 DUP1 SLOAD SWAP1 PUSH2 0x100 EXP SWAP1 DIV PUSH20 0xFFFFFFFFFFFFFFFFFFFFFFFFFFFFFFFFFFFFFFFF AND DUP2 JUMP JUMPDEST PUSH1 0x5 SLOAD DUP2 JUMP JUMPDEST PUSH1 0x4 DUP2 DUP2 SLOAD DUP2 LT PUSH2 0x422 JUMPI PUSH1 0x0 DUP1 REVERT JUMPDEST SWAP1 PUSH1 0x0 MSTORE PUSH1 0x20 PUSH1 0x0 KECCAK256 SWAP1 PUSH1 0x4 MUL ADD PUSH1 0x0 SWAP2 POP SWAP1 POP DUP1 PUSH1 0x0 ADD DUP1 SLOAD PUSH2 0x445 SWAP1 PUSH2 0xF07 JUMP JUMPDEST DUP1 PUSH1 0x1F ADD PUSH1 0x20 DUP1 SWAP2 DIV MUL PUSH1 0x20 ADD PUSH1 0x40 MLOAD SWAP1 DUP2 ADD PUSH1 0x40 MSTORE DUP1 SWAP3 SWAP2 SWAP1 DUP2 DUP2 MSTORE PUSH1 0x20 ADD DUP3 DUP1 SLOAD PUSH2 0x471 SWAP1 PUSH2 0xF07 JUMP JUMPDEST DUP1 ISZERO PUSH2 0x4BE JUMPI DUP1 PUSH1 0x1F LT PUSH2 0x493 JUMPI PUSH2 0x100 DUP1 DUP4 SLOAD DIV MUL DUP4 MSTORE SWAP2 PUSH1 0x20 ADD SWAP2 PUSH2 0x4BE JUMP JUMPDEST DUP3 ADD SWAP2 SWAP1 PUSH1 0x0 MSTORE PUSH1 0x20 PUSH1 0x0 KECCAK256 SWAP1 JUMPDEST DUP2 SLOAD DUP2 MSTORE SWAP1 PUSH1 0x1 ADD SWAP1 PUSH1 0x20 ADD DUP1 DUP4 GT PUSH2 0x4A1 JUMPI DUP3 SWAP1 SUB PUSH1 0x1F AND DUP3 ADD SWAP2 JUMPDEST POP POP POP POP POP SWAP1 DUP1 PUSH1 0x1 ADD SLOAD SWAP1 DUP1 PUSH1 0x2 ADD PUSH1 0x0 SWAP1 SLOAD SWAP1 PUSH2 0x100 EXP SWAP1 DIV PUSH20 0xFFFFFFFFFFFFFFFFFFFFFFFFFFFFFFFFFFFFFFFF AND SWAP1 DUP1 PUSH1 0x2 ADD PUSH1 0x14 SWAP1 SLOAD SWAP1 PUSH2 0x100 EXP SWAP1 DIV PUSH1 0xFF AND SWAP1 DUP1 PUSH1 0x3 ADD SLOAD SWAP1 POP DUP6 JUMP JUMPDEST PUSH1 0x0 DUP1 SLOAD SWAP1 PUSH2 0x100 EXP SWAP1 DIV PUSH20 0xFFFFFFFFFFFFFFFFFFFFFFFFFFFFFFFFFFFFFFFF AND PUSH20 0xFFFFFFFFFFFFFFFFFFFFFFFFFFFFFFFFFFFFFFFF AND CALLER PUSH20 0xFFFFFFFFFFFFFFFFFFFFFFFFFFFFFFFFFFFFFFFF AND EQ PUSH2 0x565 JUMPI PUSH1 0x0 DUP1 REVERT JUMPDEST PUSH1 0x0 PUSH1 0x40 MLOAD DUP1 PUSH1 0xA0 ADD PUSH1 0x40 MSTORE DUP1 DUP6 DUP2 MSTORE PUSH1 0x20 ADD DUP5 DUP2 MSTORE PUSH1 0x20 ADD DUP4 PUSH20 0xFFFFFFFFFFFFFFFFFFFFFFFFFFFFFFFFFFFFFFFF AND DUP2 MSTORE PUSH1 0x20 ADD PUSH1 0x0 ISZERO ISZERO DUP2 MSTORE PUSH1 0x20 ADD PUSH1 0x0 DUP2 MSTORE POP SWAP1 POP PUSH1 0x4 DUP2 SWAP1 DUP1 PUSH1 0x1 DUP2 SLOAD ADD DUP1 DUP3 SSTORE DUP1 SWAP2 POP POP PUSH1 0x1 SWAP1 SUB SWAP1 PUSH1 0x0 MSTORE PUSH1 0x20 PUSH1 0x0 KECCAK256 SWAP1 PUSH1 0x4 MUL ADD PUSH1 0x0 SWAP1 SWAP2 SWAP1 SWAP2 SWAP1 SWAP2 POP PUSH1 0x0 DUP3 ADD MLOAD DUP2 PUSH1 0x0 ADD SWAP1 DUP2 PUSH2 0x5EB SWAP2 SWAP1 PUSH2 0x10E4 JUMP JUMPDEST POP PUSH1 0x20 DUP3 ADD MLOAD DUP2 PUSH1 0x1 ADD SSTORE PUSH1 0x40 DUP3 ADD MLOAD DUP2 PUSH1 0x2 ADD PUSH1 0x0 PUSH2 0x100 EXP DUP2 SLOAD DUP2 PUSH20 0xFFFFFFFFFFFFFFFFFFFFFFFFFFFFFFFFFFFFFFFF MUL NOT AND SWAP1 DUP4 PUSH20 0xFFFFFFFFFFFFFFFFFFFFFFFFFFFFFFFFFFFFFFFF AND MUL OR SWAP1 SSTORE POP PUSH1 0x60 DUP3 ADD MLOAD DUP2 PUSH1 0x2 ADD PUSH1 0x14 PUSH2 0x100 EXP DUP2 SLOAD DUP2 PUSH1 0xFF MUL NOT AND SWAP1 DUP4 ISZERO ISZERO MUL OR SWAP1 SSTORE POP PUSH1 0x80 DUP3 ADD MLOAD DUP2 PUSH1 0x3 ADD SSTORE POP POP POP POP POP POP JUMP JUMPDEST PUSH1 0x1 SLOAD DUP2 JUMP JUMPDEST PUSH1 0x3 PUSH1 0x20 MSTORE DUP2 PUSH1 0x0 MSTORE PUSH1 0x40 PUSH1 0x0 KECCAK256 PUSH1 0x20 MSTORE DUP1 PUSH1 0x0 MSTORE PUSH1 0x40 PUSH1 0x0 KECCAK256 PUSH1 0x0 SWAP2 POP SWAP2 POP SWAP1 SLOAD SWAP1 PUSH2 0x100 EXP SWAP1 DIV PUSH1 0xFF AND DUP2 JUMP JUMPDEST PUSH1 0x1 SLOAD CALLVALUE GT PUSH2 0x6B2 JUMPI PUSH1 0x0 DUP1 REVERT JUMPDEST PUSH1 0x1 PUSH1 0x2 PUSH1 0x0 CALLER PUSH20 0xFFFFFFFFFFFFFFFFFFFFFFFFFFFFFFFFFFFFFFFF AND PUSH20 0xFFFFFFFFFFFFFFFFFFFFFFFFFFFFFFFFFFFFFFFF AND DUP2 MSTORE PUSH1 0x20 ADD SWAP1 DUP2 MSTORE PUSH1 0x20 ADD PUSH1 0x0 KECCAK256 PUSH1 0x0 PUSH2 0x100 EXP DUP2 SLOAD DUP2 PUSH1 0xFF MUL NOT AND SWAP1 DUP4 ISZERO ISZERO MUL OR SWAP1 SSTORE POP PUSH1 0x5 PUSH1 0x0 DUP2 SLOAD DUP1 SWAP3 SWAP2 SWAP1 PUSH2 0x71D SWAP1 PUSH2 0x11B6 JUMP JUMPDEST SWAP2 SWAP1 POP SSTORE POP JUMP JUMPDEST PUSH1 0x2 PUSH1 0x0 CALLER PUSH20 0xFFFFFFFFFFFFFFFFFFFFFFFFFFFFFFFFFFFFFFFF AND PUSH20 0xFFFFFFFFFFFFFFFFFFFFFFFFFFFFFFFFFFFFFFFF AND DUP2 MSTORE PUSH1 0x20 ADD SWAP1 DUP2 MSTORE PUSH1 0x20 ADD PUSH1 0x0 KECCAK256 PUSH1 0x0 SWAP1 SLOAD SWAP1 PUSH2 0x100 EXP SWAP1 DIV PUSH1 0xFF AND PUSH2 0x77A JUMPI PUSH1 0x0 DUP1 REVERT JUMPDEST PUSH1 0x0 DUP1 SLOAD SWAP1 PUSH2 0x100 EXP SWAP1 DIV PUSH20 0xFFFFFFFFFFFFFFFFFFFFFFFFFFFFFFFFFFFFFFFF AND PUSH20 0xFFFFFFFFFFFFFFFFFFFFFFFFFFFFFFFFFFFFFFFF AND CALLER PUSH20 0xFFFFFFFFFFFFFFFFFFFFFFFFFFFFFFFFFFFFFFFF AND SUB PUSH2 0x7D2 JUMPI PUSH1 0x0 DUP1 REVERT JUMPDEST PUSH1 0x3 PUSH1 0x0 DUP3 DUP2 MSTORE PUSH1 0x20 ADD SWAP1 DUP2 MSTORE PUSH1 0x20 ADD PUSH1 0x0 KECCAK256 PUSH1 0x0 CALLER PUSH20 0xFFFFFFFFFFFFFFFFFFFFFFFFFFFFFFFFFFFFFFFF AND PUSH20 0xFFFFFFFFFFFFFFFFFFFFFFFFFFFFFFFFFFFFFFFF AND DUP2 MSTORE PUSH1 0x20 ADD SWAP1 DUP2 MSTORE PUSH1 0x20 ADD PUSH1 0x0 KECCAK256 PUSH1 0x0 SWAP1 SLOAD SWAP1 PUSH2 0x100 EXP SWAP1 DIV PUSH1 0xFF AND ISZERO PUSH2 0x83A JUMPI PUSH1 0x0 DUP1 REVERT JUMPDEST PUSH1 0x1 PUSH1 0x3 PUSH1 0x0 DUP4 DUP2 MSTORE PUSH1 0x20 ADD SWAP1 DUP2 MSTORE PUSH1 0x20 ADD PUSH1 0x0 KECCAK256 PUSH1 0x0 CALLER PUSH20 0xFFFFFFFFFFFFFFFFFFFFFFFFFFFFFFFFFFFFFFFF AND PUSH20 0xFFFFFFFFFFFFFFFFFFFFFFFFFFFFFFFFFFFFFFFF AND DUP2 MSTORE PUSH1 0x20 ADD SWAP1 DUP2 MSTORE PUSH1 0x20 ADD PUSH1 0x0 KECCAK256 PUSH1 0x0 PUSH2 0x100 EXP DUP2 SLOAD DUP2 PUSH1 0xFF MUL NOT AND SWAP1 DUP4 ISZERO ISZERO MUL OR SWAP1 SSTORE POP PUSH1 0x4 DUP2 DUP2 SLOAD DUP2 LT PUSH2 0x8B7 JUMPI PUSH2 0x8B6 PUSH2 0xD88 JUMP JUMPDEST JUMPDEST SWAP1 PUSH1 0x0 MSTORE PUSH1 0x20 PUSH1 0x0 KECCAK256 SWAP1 PUSH1 0x4 MUL ADD PUSH1 0x3 ADD PUSH1 0x0 DUP2 SLOAD DUP1 SWAP3 SWAP2 SWAP1 PUSH2 0x8D9 SWAP1 PUSH2 0x11B6 JUMP JUMPDEST SWAP2 SWAP1 POP SSTORE POP POP JUMP JUMPDEST PUSH1 0x0 PUSH1 0x40 MLOAD SWAP1 POP SWAP1 JUMP JUMPDEST PUSH1 0x0 DUP1 REVERT JUMPDEST PUSH1 0x0 DUP1 REVERT JUMPDEST PUSH1 0x0 DUP2 SWAP1 POP SWAP2 SWAP1 POP JUMP JUMPDEST PUSH2 0x908 DUP2 PUSH2 0x8F5 JUMP JUMPDEST DUP2 EQ PUSH2 0x913 JUMPI PUSH1 0x0 DUP1 REVERT JUMPDEST POP JUMP JUMPDEST PUSH1 0x0 DUP2 CALLDATALOAD SWAP1 POP PUSH2 0x925 DUP2 PUSH2 0x8FF JUMP JUMPDEST SWAP3 SWAP2 POP POP JUMP JUMPDEST PUSH1 0x0 PUSH1 0x20 DUP3 DUP5 SUB SLT ISZERO PUSH2 0x941 JUMPI PUSH2 0x940 PUSH2 0x8EB JUMP JUMPDEST JUMPDEST PUSH1 0x0 PUSH2 0x94F DUP5 DUP3 DUP6 ADD PUSH2 0x916 JUMP JUMPDEST SWAP2 POP POP SWAP3 SWAP2 POP POP JUMP JUMPDEST PUSH1 0x0 PUSH20 0xFFFFFFFFFFFFFFFFFFFFFFFFFFFFFFFFFFFFFFFF DUP3 AND SWAP1 POP SWAP2 SWAP1 POP JUMP JUMPDEST PUSH1 0x0 PUSH2 0x983 DUP3 PUSH2 0x958 JUMP JUMPDEST SWAP1 POP SWAP2 SWAP1 POP JUMP JUMPDEST PUSH2 0x993 DUP2 PUSH2 0x978 JUMP JUMPDEST DUP2 EQ PUSH2 0x99E JUMPI PUSH1 0x0 DUP1 REVERT JUMPDEST POP JUMP JUMPDEST PUSH1 0x0 DUP2 CALLDATALOAD SWAP1 POP PUSH2 0x9B0 DUP2 PUSH2 0x98A JUMP JUMPDEST SWAP3 SWAP2 POP POP JUMP JUMPDEST PUSH1 0x0 PUSH1 0x20 DUP3 DUP5 SUB SLT ISZERO PUSH2 0x9CC JUMPI PUSH2 0x9CB PUSH2 0x8EB JUMP JUMPDEST JUMPDEST PUSH1 0x0 PUSH2 0x9DA DUP5 DUP3 DUP6 ADD PUSH2 0x9A1 JUMP JUMPDEST SWAP2 POP POP SWAP3 SWAP2 POP POP JUMP JUMPDEST PUSH1 0x0 DUP2 ISZERO ISZERO SWAP1 POP SWAP2 SWAP1 POP JUMP JUMPDEST PUSH2 0x9F8 DUP2 PUSH2 0x9E3 JUMP JUMPDEST DUP3 MSTORE POP POP JUMP JUMPDEST PUSH1 0x0 PUSH1 0x20 DUP3 ADD SWAP1 POP PUSH2 0xA13 PUSH1 0x0 DUP4 ADD DUP5 PUSH2 0x9EF JUMP JUMPDEST SWAP3 SWAP2 POP POP JUMP JUMPDEST PUSH2 0xA22 DUP2 PUSH2 0x978 JUMP JUMPDEST DUP3 MSTORE POP POP JUMP JUMPDEST PUSH1 0x0 PUSH1 0x20 DUP3 ADD SWAP1 POP PUSH2 0xA3D PUSH1 0x0 DUP4 ADD DUP5 PUSH2 0xA19 JUMP JUMPDEST SWAP3 SWAP2 POP POP JUMP JUMPDEST PUSH2 0xA4C DUP2 PUSH2 0x8F5 JUMP JUMPDEST DUP3 MSTORE POP POP JUMP JUMPDEST PUSH1 0x0 PUSH1 0x20 DUP3 ADD SWAP1 POP PUSH2 0xA67 PUSH1 0x0 DUP4 ADD DUP5 PUSH2 0xA43 JUMP JUMPDEST SWAP3 SWAP2 POP POP JUMP JUMPDEST PUSH1 0x0 DUP2 MLOAD SWAP1 POP SWAP2 SWAP1 POP JUMP JUMPDEST PUSH1 0x0 DUP3 DUP3 MSTORE PUSH1 0x20 DUP3 ADD SWAP1 POP SWAP3 SWAP2 POP POP JUMP JUMPDEST PUSH1 0x0 JUMPDEST DUP4 DUP2 LT ISZERO PUSH2 0xAA7 JUMPI DUP1 DUP3 ADD MLOAD DUP2 DUP5 ADD MSTORE PUSH1 0x20 DUP2 ADD SWAP1 POP PUSH2 0xA8C JUMP JUMPDEST PUSH1 0x0 DUP5 DUP5 ADD MSTORE POP POP POP POP JUMP JUMPDEST PUSH1 0x0 PUSH1 0x1F NOT PUSH1 0x1F DUP4 ADD AND SWAP1 POP SWAP2 SWAP1 POP JUMP JUMPDEST PUSH1 0x0 PUSH2 0xACF DUP3 PUSH2 0xA6D JUMP JUMPDEST PUSH2 0xAD9 DUP2 DUP6 PUSH2 0xA78 JUMP JUMPDEST SWAP4 POP PUSH2 0xAE9 DUP2 DUP6 PUSH1 0x20 DUP7 ADD PUSH2 0xA89 JUMP JUMPDEST PUSH2 0xAF2 DUP2 PUSH2 0xAB3 JUMP JUMPDEST DUP5 ADD SWAP2 POP POP SWAP3 SWAP2 POP POP JUMP JUMPDEST PUSH1 0x0 PUSH2 0xB08 DUP3 PUSH2 0x958 JUMP JUMPDEST SWAP1 POP SWAP2 SWAP1 POP JUMP JUMPDEST PUSH2 0xB18 DUP2 PUSH2 0xAFD JUMP JUMPDEST DUP3 MSTORE POP POP JUMP JUMPDEST PUSH1 0x0 PUSH1 0xA0 DUP3 ADD SWAP1 POP DUP2 DUP2 SUB PUSH1 0x0 DUP4 ADD MSTORE PUSH2 0xB38 DUP2 DUP9 PUSH2 0xAC4 JUMP JUMPDEST SWAP1 POP PUSH2 0xB47 PUSH1 0x20 DUP4 ADD DUP8 PUSH2 0xA43 JUMP JUMPDEST PUSH2 0xB54 PUSH1 0x40 DUP4 ADD DUP7 PUSH2 0xB0F JUMP JUMPDEST PUSH2 0xB61 PUSH1 0x60 DUP4 ADD DUP6 PUSH2 0x9EF JUMP JUMPDEST PUSH2 0xB6E PUSH1 0x80 DUP4 ADD DUP5 PUSH2 0xA43 JUMP JUMPDEST SWAP7 SWAP6 POP POP POP POP POP POP JUMP JUMPDEST PUSH1 0x0 DUP1 REVERT JUMPDEST PUSH1 0x0 DUP1 REVERT JUMPDEST PUSH32 0x4E487B7100000000000000000000000000000000000000000000000000000000 PUSH1 0x0 MSTORE PUSH1 0x41 PUSH1 0x4 MSTORE PUSH1 0x24 PUSH1 0x0 REVERT JUMPDEST PUSH2 0xBBA DUP3 PUSH2 0xAB3 JUMP JUMPDEST DUP2 ADD DUP2 DUP2 LT PUSH8 0xFFFFFFFFFFFFFFFF DUP3 GT OR ISZERO PUSH2 0xBD9 JUMPI PUSH2 0xBD8 PUSH2 0xB82 JUMP JUMPDEST JUMPDEST DUP1 PUSH1 0x40 MSTORE POP POP POP JUMP JUMPDEST PUSH1 0x0 PUSH2 0xBEC PUSH2 0x8E1 JUMP JUMPDEST SWAP1 POP PUSH2 0xBF8 DUP3 DUP3 PUSH2 0xBB1 JUMP JUMPDEST SWAP2 SWAP1 POP JUMP JUMPDEST PUSH1 0x0 PUSH8 0xFFFFFFFFFFFFFFFF DUP3 GT ISZERO PUSH2 0xC18 JUMPI PUSH2 0xC17 PUSH2 0xB82 JUMP JUMPDEST JUMPDEST PUSH2 0xC21 DUP3 PUSH2 0xAB3 JUMP JUMPDEST SWAP1 POP PUSH1 0x20 DUP2 ADD SWAP1 POP SWAP2 SWAP1 POP JUMP JUMPDEST DUP3 DUP2 DUP4 CALLDATACOPY PUSH1 0x0 DUP4 DUP4 ADD MSTORE POP POP POP JUMP JUMPDEST PUSH1 0x0 PUSH2 0xC50 PUSH2 0xC4B DUP5 PUSH2 0xBFD JUMP JUMPDEST PUSH2 0xBE2 JUMP JUMPDEST SWAP1 POP DUP3 DUP2 MSTORE PUSH1 0x20 DUP2 ADD DUP5 DUP5 DUP5 ADD GT ISZERO PUSH2 0xC6C JUMPI PUSH2 0xC6B PUSH2 0xB7D JUMP JUMPDEST JUMPDEST PUSH2 0xC77 DUP5 DUP3 DUP6 PUSH2 0xC2E JUMP JUMPDEST POP SWAP4 SWAP3 POP POP POP JUMP JUMPDEST PUSH1 0x0 DUP3 PUSH1 0x1F DUP4 ADD SLT PUSH2 0xC94 JUMPI PUSH2 0xC93 PUSH2 0xB78 JUMP JUMPDEST JUMPDEST DUP2 CALLDATALOAD PUSH2 0xCA4 DUP5 DUP3 PUSH1 0x20 DUP7 ADD PUSH2 0xC3D JUMP JUMPDEST SWAP2 POP POP SWAP3 SWAP2 POP POP JUMP JUMPDEST PUSH2 0xCB6 DUP2 PUSH2 0xAFD JUMP JUMPDEST DUP2 EQ PUSH2 0xCC1 JUMPI PUSH1 0x0 DUP1 REVERT JUMPDEST POP JUMP JUMPDEST PUSH1 0x0 DUP2 CALLDATALOAD SWAP1 POP PUSH2 0xCD3 DUP2 PUSH2 0xCAD JUMP JUMPDEST SWAP3 SWAP2 POP POP JUMP JUMPDEST PUSH1 0x0 DUP1 PUSH1 0x0 PUSH1 0x60 DUP5 DUP7 SUB SLT ISZERO PUSH2 0xCF2 JUMPI PUSH2 0xCF1 PUSH2 0x8EB JUMP JUMPDEST JUMPDEST PUSH1 0x0 DUP5 ADD CALLDATALOAD PUSH8 0xFFFFFFFFFFFFFFFF DUP2 GT ISZERO PUSH2 0xD10 JUMPI PUSH2 0xD0F PUSH2 0x8F0 JUMP JUMPDEST JUMPDEST PUSH2 0xD1C DUP7 DUP3 DUP8 ADD PUSH2 0xC7F JUMP JUMPDEST SWAP4 POP POP PUSH1 0x20 PUSH2 0xD2D DUP7 DUP3 DUP8 ADD PUSH2 0x916 JUMP JUMPDEST SWAP3 POP POP PUSH1 0x40 PUSH2 0xD3E DUP7 DUP3 DUP8 ADD PUSH2 0xCC4 JUMP JUMPDEST SWAP2 POP POP SWAP3 POP SWAP3 POP SWAP3 JUMP JUMPDEST PUSH1 0x0 DUP1 PUSH1 0x40 DUP4 DUP6 SUB SLT ISZERO PUSH2 0xD5F JUMPI PUSH2 0xD5E PUSH2 0x8EB JUMP JUMPDEST JUMPDEST PUSH1 0x0 PUSH2 0xD6D DUP6 DUP3 DUP7 ADD PUSH2 0x916 JUMP JUMPDEST SWAP3 POP POP PUSH1 0x20 PUSH2 0xD7E DUP6 DUP3 DUP7 ADD PUSH2 0x9A1 JUMP JUMPDEST SWAP2 POP POP SWAP3 POP SWAP3 SWAP1 POP JUMP JUMPDEST PUSH32 0x4E487B7100000000000000000000000000000000000000000000000000000000 PUSH1 0x0 MSTORE PUSH1 0x32 PUSH1 0x4 MSTORE PUSH1 0x24 PUSH1 0x0 REVERT JUMPDEST PUSH32 0x4E487B7100000000000000000000000000000000000000000000000000000000 PUSH1 0x0 MSTORE PUSH1 0x12 PUSH1 0x4 MSTORE PUSH1 0x24 PUSH1 0x0 REVERT JUMPDEST PUSH32 0x4E487B7100000000000000000000000000000000000000000000000000000000 PUSH1 0x0 MSTORE PUSH1 0x11 PUSH1 0x4 MSTORE PUSH1 0x24 PUSH1 0x0 REVERT JUMPDEST PUSH1 0x0 PUSH2 0xE20 DUP3 PUSH2 0x8F5 JUMP JUMPDEST SWAP2 POP PUSH2 0xE2B DUP4 PUSH2 0x8F5 JUMP JUMPDEST SWAP3 POP DUP3 PUSH2 0xE3B JUMPI PUSH2 0xE3A PUSH2 0xDB7 JUMP JUMPDEST JUMPDEST DUP3 DUP3 DIV SWAP1 POP SWAP3 SWAP2 POP POP JUMP JUMPDEST PUSH32 0x54686572652068617320746F206265206D6F7265206174206C65617374203530 PUSH1 0x0 DUP3 ADD MSTORE PUSH32 0x252070657263656E74206F6620617070726F7665730000000000000000000000 PUSH1 0x20 DUP3 ADD MSTORE POP JUMP JUMPDEST PUSH1 0x0 PUSH2 0xEA2 PUSH1 0x35 DUP4 PUSH2 0xA78 JUMP JUMPDEST SWAP2 POP PUSH2 0xEAD DUP3 PUSH2 0xE46 JUMP JUMPDEST PUSH1 0x40 DUP3 ADD SWAP1 POP SWAP2 SWAP1 POP JUMP JUMPDEST PUSH1 0x0 PUSH1 0x20 DUP3 ADD SWAP1 POP DUP2 DUP2 SUB PUSH1 0x0 DUP4 ADD MSTORE PUSH2 0xED1 DUP2 PUSH2 0xE95 JUMP JUMPDEST SWAP1 POP SWAP2 SWAP1 POP JUMP JUMPDEST PUSH32 0x4E487B7100000000000000000000000000000000000000000000000000000000 PUSH1 0x0 MSTORE PUSH1 0x22 PUSH1 0x4 MSTORE PUSH1 0x24 PUSH1 0x0 REVERT JUMPDEST PUSH1 0x0 PUSH1 0x2 DUP3 DIV SWAP1 POP PUSH1 0x1 DUP3 AND DUP1 PUSH2 0xF1F JUMPI PUSH1 0x7F DUP3 AND SWAP2 POP JUMPDEST PUSH1 0x20 DUP3 LT DUP2 SUB PUSH2 0xF32 JUMPI PUSH2 0xF31 PUSH2 0xED8 JUMP JUMPDEST JUMPDEST POP SWAP2 SWAP1 POP JUMP JUMPDEST PUSH1 0x0 DUP2 SWAP1 POP DUP2 PUSH1 0x0 MSTORE PUSH1 0x20 PUSH1 0x0 KECCAK256 SWAP1 POP SWAP2 SWAP1 POP JUMP JUMPDEST PUSH1 0x0 PUSH1 0x20 PUSH1 0x1F DUP4 ADD DIV SWAP1 POP SWAP2 SWAP1 POP JUMP JUMPDEST PUSH1 0x0 DUP3 DUP3 SHL SWAP1 POP SWAP3 SWAP2 POP POP JUMP JUMPDEST PUSH1 0x0 PUSH1 0x8 DUP4 MUL PUSH2 0xF9A PUSH32 0xFFFFFFFFFFFFFFFFFFFFFFFFFFFFFFFFFFFFFFFFFFFFFFFFFFFFFFFFFFFFFFFF DUP3 PUSH2 0xF5D JUMP JUMPDEST PUSH2 0xFA4 DUP7 DUP4 PUSH2 0xF5D JUMP JUMPDEST SWAP6 POP DUP1 NOT DUP5 AND SWAP4 POP DUP1 DUP7 AND DUP5 OR SWAP3 POP POP POP SWAP4 SWAP3 POP POP POP JUMP JUMPDEST PUSH1 0x0 DUP2 SWAP1 POP SWAP2 SWAP1 POP JUMP JUMPDEST PUSH1 0x0 PUSH2 0xFE1 PUSH2 0xFDC PUSH2 0xFD7 DUP5 PUSH2 0x8F5 JUMP JUMPDEST PUSH2 0xFBC JUMP JUMPDEST PUSH2 0x8F5 JUMP JUMPDEST SWAP1 POP SWAP2 SWAP1 POP JUMP JUMPDEST PUSH1 0x0 DUP2 SWAP1 POP SWAP2 SWAP1 POP JUMP JUMPDEST PUSH2 0xFFB DUP4 PUSH2 0xFC6 JUMP JUMPDEST PUSH2 0x100F PUSH2 0x1007 DUP3 PUSH2 0xFE8 JUMP JUMPDEST DUP5 DUP5 SLOAD PUSH2 0xF6A JUMP JUMPDEST DUP3 SSTORE POP POP POP POP JUMP JUMPDEST PUSH1 0x0 SWAP1 JUMP JUMPDEST PUSH2 0x1024 PUSH2 0x1017 JUMP JUMPDEST PUSH2 0x102F DUP2 DUP5 DUP5 PUSH2 0xFF2 JUMP JUMPDEST POP POP POP JUMP JUMPDEST JUMPDEST DUP2 DUP2 LT ISZERO PUSH2 0x1053 JUMPI PUSH2 0x1048 PUSH1 0x0 DUP3 PUSH2 0x101C JUMP JUMPDEST PUSH1 0x1 DUP2 ADD SWAP1 POP PUSH2 0x1035 JUMP JUMPDEST POP POP JUMP JUMPDEST PUSH1 0x1F DUP3 GT ISZERO PUSH2 0x1098 JUMPI PUSH2 0x1069 DUP2 PUSH2 0xF38 JUMP JUMPDEST PUSH2 0x1072 DUP5 PUSH2 0xF4D JUMP JUMPDEST DUP2 ADD PUSH1 0x20 DUP6 LT ISZERO PUSH2 0x1081 JUMPI DUP2 SWAP1 POP JUMPDEST PUSH2 0x1095 PUSH2 0x108D DUP6 PUSH2 0xF4D JUMP JUMPDEST DUP4 ADD DUP3 PUSH2 0x1034 JUMP JUMPDEST POP POP JUMPDEST POP POP POP JUMP JUMPDEST PUSH1 0x0 DUP3 DUP3 SHR SWAP1 POP SWAP3 SWAP2 POP POP JUMP JUMPDEST PUSH1 0x0 PUSH2 0x10BB PUSH1 0x0 NOT DUP5 PUSH1 0x8 MUL PUSH2 0x109D JUMP JUMPDEST NOT DUP1 DUP4 AND SWAP2 POP POP SWAP3 SWAP2 POP POP JUMP JUMPDEST PUSH1 0x0 PUSH2 0x10D4 DUP4 DUP4 PUSH2 0x10AA JUMP JUMPDEST SWAP2 POP DUP3 PUSH1 0x2 MUL DUP3 OR SWAP1 POP SWAP3 SWAP2 POP POP JUMP JUMPDEST PUSH2 0x10ED DUP3 PUSH2 0xA6D JUMP JUMPDEST PUSH8 0xFFFFFFFFFFFFFFFF DUP2 GT ISZERO PUSH2 0x1106 JUMPI PUSH2 0x1105 PUSH2 0xB82 JUMP JUMPDEST JUMPDEST PUSH2 0x1110 DUP3 SLOAD PUSH2 0xF07 JUMP JUMPDEST PUSH2 0x111B DUP3 DUP3 DUP6 PUSH2 0x1057 JUMP JUMPDEST PUSH1 0x0 PUSH1 0x20 SWAP1 POP PUSH1 0x1F DUP4 GT PUSH1 0x1 DUP2 EQ PUSH2 0x114E JUMPI PUSH1 0x0 DUP5 ISZERO PUSH2 0x113C JUMPI DUP3 DUP8 ADD MLOAD SWAP1 POP JUMPDEST PUSH2 0x1146 DUP6 DUP3 PUSH2 0x10C8 JUMP JUMPDEST DUP7 SSTORE POP PUSH2 0x11AE JUMP JUMPDEST PUSH1 0x1F NOT DUP5 AND PUSH2 0x115C DUP7 PUSH2 0xF38 JUMP JUMPDEST PUSH1 0x0 JUMPDEST DUP3 DUP2 LT ISZERO PUSH2 0x1184 JUMPI DUP5 DUP10 ADD MLOAD DUP3 SSTORE PUSH1 0x1 DUP3 ADD SWAP2 POP PUSH1 0x20 DUP6 ADD SWAP5 POP PUSH1 0x20 DUP2 ADD SWAP1 POP PUSH2 0x115F JUMP JUMPDEST DUP7 DUP4 LT ISZERO PUSH2 0x11A1 JUMPI DUP5 DUP10 ADD MLOAD PUSH2 0x119D PUSH1 0x1F DUP10 AND DUP3 PUSH2 0x10AA JUMP JUMPDEST DUP4 SSTORE POP JUMPDEST PUSH1 0x1 PUSH1 0x2 DUP9 MUL ADD DUP9 SSTORE POP POP POP JUMPDEST POP POP POP POP POP POP JUMP JUMPDEST PUSH1 0x0 PUSH2 0x11C1 DUP3 PUSH2 0x8F5 JUMP JUMPDEST SWAP2 POP PUSH32 0xFFFFFFFFFFFFFFFFFFFFFFFFFFFFFFFFFFFFFFFFFFFFFFFFFFFFFFFFFFFFFFFF DUP3 SUB PUSH2 0x11F3 JUMPI PUSH2 0x11F2 PUSH2 0xDE6 JUMP JUMPDEST JUMPDEST PUSH1 0x1 DUP3 ADD SWAP1 POP SWAP2 SWAP1 POP JUMP INVALID LOG2 PUSH5 0x6970667358 0x22 SLT KECCAK256 PUSH18 0x17B42C0AD2797F632F437B74BFB71BBD22A9 PUSH7 0x943B9E70EDAF67 INVALID BALANCE SHR 0xE 0xE2 PUSH5 0x736F6C6343 STOP ADDMOD SGT STOP CALLER "},"gasEstimates":{"creation":{"codeDepositCost":"932000","executionCost":"infinite","totalCost":"infinite"},"external":{"approvals(uint256,address)":"3131","approveRequest(uint256)":"infinite","approvers(address)":"2868","contribute()":"51021","contributorsCount()":"2496","createRequest(string,uint256,address)":"infinite","finalizeRequest(uint256)":"infinite","manager()":"2556","minimumContribution()":"2451","requests(uint256)":"infinite"}},"methodIdentifiers":{"approvals(uint256,address)":"ab2850da","approveRequest(uint256)":"d7d1bbdb","approvers(address)":"0a144391","contribute()":"d7bb99ba","contributorsCount()":"7569b3d7","createRequest(string,uint256,address)":"8a9cfd55","finalizeRequest(uint256)":"03441006","manager()":"481c6a75","minimumContribution()":"937e09b1","requests(uint256)":"81d12c58"}},"storageLayout":{"storage":[{"astId":52,"contract":"Crowdfund.sol:Crowdfund","label":"manager","offset":0,"slot":"0","type":"t_address"},{"astId":54,"contract":"Crowdfund.sol:Crowdfund","label":"minimumContribution","offset":0,"slot":"1","type":"t_uint256"},{"astId":58,"contract":"Crowdfund.sol:Crowdfund","label":"approvers","offset":0,"slot":"2","type":"t_mapping(t_address,t_bool)"},{"astId":64,"contract":"Crowdfund.sol:Crowdfund","label":"approvals","offset":0,"slot":"3","type":"t_mapping(t_uint256,t_mapping(t_address,t_bool))"},{"astId":68,"contract":"Crowdfund.sol:Crowdfund","label":"requests","offset":0,"slot":"4","type":"t_array(t_struct(Request)50_storage)dyn_storage"},{"astId":70,"contract":"Crowdfund.sol:Crowdfund","label":"contributorsCount","offset":0,"slot":"5","type":"t_uint256"}],"types":{"t_address":{"encoding":"inplace","label":"address","numberOfBytes":"20"},"t_address_payable":{"encoding":"inplace","label":"address payable","numberOfBytes":"20"},"t_array(t_struct(Request)50_storage)dyn_storage":{"base":"t_struct(Request)50_storage","encoding":"dynamic_array","label":"struct Crowdfund.Request[]","numberOfBytes":"32"},"t_bool":{"encoding":"inplace","label":"bool","numberOfBytes":"1"},"t_mapping(t_address,t_bool)":{"encoding":"mapping","key":"t_address","label":"mapping(address => bool)","numberOfBytes":"32","value":"t_bool"},"t_mapping(t_uint256,t_mapping(t_address,t_bool))":{"encoding":"mapping","key":"t_uint256","label":"mapping(uint256 => mapping(address => bool))","numberOfBytes":"32","value":"t_mapping(t_address,t_bool)"},"t_string_storage":{"encoding":"bytes","label":"string","numberOfBytes":"32"},"t_struct(Request)50_storage":{"encoding":"inplace","label":"struct Crowdfund.Request","members":[{"astId":41,"contract":"Crowdfund.sol:Crowdfund","label":"description","offset":0,"slot":"0","type":"t_string_storage"},{"astId":43,"contract":"Crowdfund.sol:Crowdfund","label":"value","offset":0,"slot":"1","type":"t_uint256"},{"astId":45,"contract":"Crowdfund.sol:Crowdfund","label":"recipient","offset":0,"slot":"2","type":"t_address_payable"},{"astId":47,"contract":"Crowdfund.sol:Crowdfund","label":"complete","offset":20,"slot":"2","type":"t_bool"},{"astId":49,"contract":"Crowdfund.sol:Crowdfund","label":"approvalsCount","offset":0,"slot":"3","type":"t_uint256"}],"numberOfBytes":"128"},"t_uint256":{"encoding":"inplace","label":"uint256","numberOfBytes":"32"}}},"userdoc":{"kind":"user","methods":{},"version":1}}